:020000000F28C7
:10000800CE00030E83129200040893000A0894009D
:100018004F0895001528102883129701980183012D
:10002800C2283428851006144E28061086144E2837
:10003800861006154E28061186154E2886110616B6
:100048004E28061286164E28861206174E280613C4
:1000580086174E28861305144E28051085144E2839
:100068000A308C0000308D0018088F0017088E00A9
:10007800692083120D08003A031943284E280C08FA
:1000880084000A30040203184E2800308A00B03079
:1000980004078200013097070318980A0030980770
:1000A8000F301802A03003191702031C5D289701AE
:1000B80098010B111508CF0014088A001308840052
:1000C800120E8300CE0E4E0E090083120C080D048A
:1000D800031997289101910A8D1B7E28013003107E
:1000E8008C0D8D0DFF3E031D732801309000100804
:1000F800910770280D080F02031D84280C080E02B2
:10010800031C8C280C088E020D08031C8F038F0219
:10011800013003108D0C8C0CFF3E031D8D2801301F
:100128009102031D7E280F088D000E088C00080020
:10013800FC3083129600160883168505051586017E
:1001480083120510851006108610061186110612F6
:100158008612061386130800162819281C281F283B
:100168002228252828282B282E28312807308316CE
:100178008100A0308B008312810108009C20BA20E6
:02018800C42889
:02400E00F2FFBF
:00000001FF
