:100000000A128A11FC2F00308A000408840A820731
:10001000003453347434723469346E3467342034A9
:100020003134003453347434723469346E34673488
:1000300020343234003453347434723469346E34BE
:1000400067342034333400345334743472346934B4
:0A0050006E34673420343434003479
:100E3A0083160313870188010800F001F101710884
:100E4A00803AFF0080307F02031D2D2F133070027D
:100E5A00031808000130F0070318F10A0030F107FF
:100E6A00242FF30073088312031388007208031DEA
:100E7A00402F0712412F0716871207130A128A11E9
:100E8A0022278312031307170800F600F5017508D5
:100E9A00760784000A128A1103200A128A11003A7C
:100EAA0003190800F201F20A7508760784000A128B
:100EBA008A1103200A128A110A128A1136270A1283
:100ECA008A110130F4007408F5074C2FF201013041
:100EDA000A128A1136270A128A11F20138300A12C6
:100EEA008A1136270A128A11F2010C300A128A1163
:100EFA0036270A128A11F20106300A128A11362797
:100F0A000A128A11F20180300A128A113627080061
:100F1A00F500AE2FF201750880380A128A113627B9
:100F2A000800F2017508403E80380A128A113627F5
:100F3A000800F2017508143E80380A128A11362711
:100F4A000800F2017508543E80380A128A113627C1
:100F5A0008007408003A03198F2F013A0319962FD3
:100F6A00033A03199E2F013A0319A62FBC2F080032
:100F7A000A128A111D270A128A110A128A116B276C
:100F8A000A128A1101300A128A114A270A128A1190
:100F9A00F401F40A02300A128A118D270A128A1100
:100FAA000A300A128A114A270A128A110230F700F5
:100FBA007708F40004300A128A118D270A128A115E
:100FCA0013300A128A114A270A128A110330F700CB
:100FDA007708F40006300A128A118D270A128A113C
:100FEA001C300A128A114A270A128A11FB2F83011E
:060FFA000A128A11BD2F4E
:02400E00323D41
:00000001FF
