:10000000FE2BCF1B0B2883134F1883170008840A7D
:100010000319CF0A080000308A000408840A820706
:100020000034483465346C346C346F3420345734C5
:100030006F3472346C3464342134213400342D2B09
:060040002E2B312B342BA6
:10055600831292000B2383121208A9230800831624
:1005660085018312850183168601831286010800A0
:10057600B2227323013083129700803098009901CC
:100586009A01EE22C52A0F3083128C000C088316BE
:1005960086050F3083128C000C088605080083122E
:1005A60093000B23831205141308A923FE3083122C
:1005B600920012088505080083120515C7308C00C5
:1005C600E42A8C0BE32AE72AE82AFB3083128C0004
:1005D6000C088505080083121A089B001B08930067
:1005E60019082A2383121808CF001708840001204F
:1005F600003A0319080083121808CF001708840070
:100606000120D2220130831297070318980AF52A8F
:1006160083129101910A83121103031D252B0515DF
:10062600000000004B23013A831203199101FB30AD
:10063600831290001008850500000000DF220000EC
:1006460000000E2BFD30900010088505080083126F
:1006560096003C2B372B1608403E382B1608143EC6
:10066600382B1608543E382B1608940014089500AB
:10067600472B13088400043004020318372B00307C
:100686008A001F300407820015088038AB22080054
:1006960083128F018D018E01612B00300E020A300C
:1006A60003190D0203185E2B01308D0703188E0AFD
:1006B60000308E07612B8F018F0A712B01308C0061
:1006C6000030861B0130013E6A2B03108C0DFF3E65
:1006D600031D682B0C080605031D502B0F08080088
:1006E600F83083129300130883168505F8308312B9
:1006F600930013088505C62283129501033015065B
:100706000319992B3030930013088604DF22073033
:10071600831294007D309300930B8F2B940B8F2BB9
:1007260001308312930013089507812B0B23C622F1
:1007360083128616DF222830AB220C30AB2206301D
:10074600AB220230AB220130AB22080083128F00AD
:10075600C62283120F088D00043003108D0CFF3E55
:10076600031DB02B0D080F398E000E0890000F08E0
:100776000F398D000D0891001018061610088D000F
:1007860003100D0C8E000E08900010188616100827
:100796008D0003100D0C8E000E0890001018061721
:1007A60010088D0003100D0C8E000E089000101816
:1007B6008617DF22C62283121118061611088D002D
:1007C60003100D0C8E000E089100111886161108E4
:1007D6008D0003100D0C8E000E08910011180617DF
:1007E60011088D0003100D0C8E000E0891001118D3
:0A07F6008617DF2208008301BB2AEA
:02400E00F2FFBF
:00000001FF
