:060000000A128A11FC2F18
:100EFA00F0007008831203178D00831603178C13F2
:100F0A000C14831203170C080800F20072088312EB
:100F1A0003178D0070088C00831603178C130C15A9
:100F2A000B08F1007108F3008B0155308D00AA30CF
:100F3A008D008C1473088B000C11831203130D1A85
:100F4A00A82F0000A22F0D12080083160313870191
:100F5A00F901FA010130F7000030F80000307A0296
:100F6A000830031979020318D62F7708F400740899
:100F7A00F00079080A128A118A270A128A110310C4
:100F8A00770DF700780DF8000130F9070318FA0A0F
:100F9A000030FA0700307A02083003197902031C7C
:100FAA00BA2FF901FA0100307A02083003197902DE
:100FBA000318AD2F79080A128A117D270A128A119D
:100FCA008312031387000630F6001330F500AD30A4
:100FDA00F400F40BEE2FF50BEE2FF60BEE2FF52F98
:100FEA000130F9070318FA0A0030FA07D82F8301EB
:060FFA000A128A11AA2F61
:00000001FF
