:100000000A128A11F62FFF1B0D2883137F188317FE
:100010000008840A0319FF0A080000308A00040857
:10002000840A82070034013400340A340034643412
:100030000034E834033410342734013400341034ED
:1000400000340034013400341034543463346534E3
:100050006C3473343D342D342534343464342E34CC
:100060002534303431346434C334B83443340D343B
:100070000A3400345434633465346C3473343D349E
:100080002534343464342E342534303431346434FB
:10009000C334B83443340D340A3400345334683430
:1000A0006F347234743420344334693472346334BA
:1000B000753469347434203421340D340A340034F6
:1000C0004E346F342034533465346E3473346F34AB
:1000D0007234203466346F3475346E3464340D34C5
:1000E0000A34003430343134323433343434353437
:1000F0003634373438343934413442344334443478
:10010000453446340034483465346C346C346F34D0
:10011000203455347334653472342134213421341D
:100120000D340A3400342034203454343A3420342A
:10013000253430343434583420343D3420340034C1
:1001400042347534733420344534723472346F342D
:1001500072340D340A340034253430343234583497
:1001600020340034493444343A34203400340134E7
:10017000F00083160313981CB92870088312031328
:1001800099000800F100831603130610C7287108B0
:100190000319CD288316031306140930F000F00B61
:1001A000CF2883120313061CF1011D30F000F00B61
:1001B000D728DA2883160313061471080800F800FC
:1001C0000830F4007408F600780801390A128A1120
:1001D000C2200A128A11F4007408F7000310F80C08
:1001E0007708031DF8170130F602031DE42878088C
:1001F000F400F5017408F2007508F3000800F4013A
:10020000F501701C09297208F4070318F50A730830
:10021000F50701300310F20DF30DFF3E031D0A290F
:1002200001300310F10CF00CFF3E031D1129700882
:100230007104031D01297508F1007408F00008001D
:10024000F401F40174087107840072080318720A3B
:1002500083120313FF000A128A1103200A128A1163
:10026000003A031908007408710784007208031823
:10027000720A83120313FF000A128A1103200A1262
:100280008A110A128A11B8200A128A110130F30069
:100290007308F4072229FB000A128A11AD210A1201
:1002A0008A1179080319702955300A128A11DF2042
:1002B0000A128A110830FA007A08FC0079088400D2
:1002C000831300080A128A11DF200A128A110130F2
:1002D000FA007A08F9070130FC02031976295E2931
:1002E000CC300A128A11DF200A128A117B080A1206
:1002F0008A11DF200800780879040319A829FD0174
:10030000FD0AF91B8F2901300310F80DF90DFF3E8E
:10031000031D84290130FC007C08FD078129790830
:100320007B02031D952978087A02031C9D29780811
:10033000FA027908031CFB03FB0201300310F90CDD
:10034000F80CFF3E031D9E290130FD02031D8F297D
:100350007B08F9007A08F8000800831203130610DE
:10036000831603130610BF30F000B629F00BB52931
:10037000B929BA298316031306142B30F000F00BA9
:10038000BF29C2290130F000831203130608013986
:10039000013ECC290310F00DFF3E031DCA29700851
:1003A0000605F1007108F200A530F000D729F00B26
:1003B000D629DA29831203130618E029F201F20A7A
:1003C00072080800F501F601700871040319192A72
:1003D000F701F70AF11BF82901300310F00DF10DB8
:1003E000FF3E031DED290130F4007408F707EA29E8
:1003F00001300310F50DF60DFF3E031DF9297108BC
:100400007302031D052A70087202031C0E2A70086D
:10041000F2027108031CF303F30275140130031098
:10042000F10CF00CFF3E031D0F2A0130F702031DF3
:10043000F8297608F1007508F000080000308312F2
:100440000313A9000030A8002530A7008030A600C3
:100450000A128A1164230A128A1183120313E1001B
:100460006108E4007130F1008030F2000A128A1154
:1004700020210A128A110A128A15E8270A128A1103
:100480000B3083120313E3002630E2005D30E100FD
:10049000E10B482AE20B482AE30B482A0A128A1188
:1004A0004F240A128A110B3083120313E300263003
:1004B000E2005D30E100E10B5B2AE20B5B2AE30B1B
:1004C0005B2A3B2A83120313A2000A128A11AD2170
:1004D0000A128A11003A03196F2AFF300800F0301F
:1004E0000A128A11DF200A128A1183120313A10152
:1004F0004030FA007A08A3000830FA007A08A00019
:1005000001300A128A11C2200A128A11FA007A08EE
:1005100083120313A40001300A128A11C2200A12A6
:100520008A11003A03199B2A831203132408031922
:10053000B32AFE300800831203132408031DB32AD4
:1005400022082302031CAD2A790884008313001CAF
:10055000B32A220823060319B32AA401A40A2308F4
:10056000FA007A08A10024080A128A11C2200A128D
:100570008A117908840003108313800C83120313FB
:1005800024080319C62A7908840080170130A302C1
:100590000130A002031D802A0130FA007A08F90711
:1005A0002308031D7C2A2108080083120313A101DC
:1005B000F31FE72AF009F109F209F309F00A031918
:1005C000F10A0319F20A0319F30AA101A10AF71F9C
:1005D000F82AF409F509F609F709F40A0319F50AE6
:1005E0000319F60A0319F70A0130F8007808A10682
:1005F0000030A5000030A4000030A3000030A200AD
:10060000730872047104700403194D2BA001A00A31
:10061000F31B182B0130F8000310F00DF10DF20D53
:10062000F30DF80B0C2B0130F8007808A007082B0D
:100630000130F8000310A20DA30DA40DA50DF80BB9
:100640001A2B73087702031D2F2B72087602031DE5
:100650002F2B71087502031D2F2B70087402031CC9
:10066000402B7008F4027108031C710FF502720828
:10067000031C720FF6027308031C730FF702221497
:1006800001300310F30CF20CF10CF00CFF3E031DD3
:10069000412B0130A002031D182B210803195B2BED
:1006A000A209A309A409A509A20A0319A30A031907
:1006B000A40A0319A50A2508F3002408F200230858
:1006C000F1002208F0000800831203132608AA0094
:1006D0002708AB002808AC002908AD00063003103D
:1006E000AA0DAB0DAC0DAD0DFF3E031D6F2B2D08FC
:1006F000F3002C08F2002B08F1002A08F00000306B
:10070000AE001230AF007A30B0000030B1002608E1
:10071000B2002708B3002808B4002908B500063045
:100720000310B20DB30DB40DB50DFF3E031D902B9C
:10073000B209B309B409B509B20A0319B30A031916
:10074000B40A0319B50A3208AE0733080318330F89
:10075000AA2BAB2BAF0734080318340FB02BB12BE7
:10076000B00735080318350AB1073108F70030081B
:10077000F6002F08F5002E08F4000A128A11D5227F
:100780000A128A117108FA007008F90001307A0221
:10079000003003197902031C322C8312031326083C
:1007A000AA002708AB002808AC002908AD000430D7
:1007B0000310AA0DAB0DAC0DAD0DFF3E031DD82BE4
:1007C0002D08F3002C08F2002B08F1002A08F00095
:1007D0000030AE001230AF007A30B0000030B1000F
:1007E0002608B2002708B3002808B4002908B5007D
:1007F00004300310B20DB30DB40DB50DFF3E031D53
:10080000F92BB209B309B409B509B20A0319B30A3D
:100810000319B40A0319B50A3208AE0733080318DE
:10082000330F132C142CAF0734080318340F192C72
:100830001A2CB00735080318350AB1073108F7003C
:100840003008F6002F08F5002E08F4000A128A116D
:10085000D5220A128A117108FA007008F90083166D
:100860000313181501307A020030031979020318B6
:100870004D2C790883160313990018128312031361
:100880009817831603138717071383120313181679
:100890008316031398160130080000300800FF305B
:1008A00083120313B2003208E00060080319C92D57
:1008B0005530B2003208F90060080A128A1162222B
:1008C0000A128A1183120313B3003308E000600A8E
:1008D000031D742C4E30F1008030F2000A128A1190
:1008E00020210A128A11C92DFE30831203136006DB
:1008F000031D842C8E30F1008030F2000A128A1120
:1009000020210A128A11C92D28308312031355069B
:1009100003198E2C10305506031DC42DA030F10094
:100920008030F2000A128A1120210A128A118312E1
:100930000313DF0108305F020318C62C9A30B2009F
:100940003208A0005F08553E840083130008B300FE
:10095000B4013308A1003408A20035300A128A110C
:10096000D1250A128A113530F1000030F2000A1246
:100970008A1120210A128A11013083120313B20056
:100980003208DF0708305F02031C9E2CBE300A12BB
:100990008A11DF200A128A110A128A15D1270A1237
:1009A0008A117A0883120313E6007908E5000A1217
:1009B0008A15D1270A128A11790883120313B3000A
:1009C000B2013208E5043308E6046608B2003208D2
:1009D000D300D31FF52CE509E6090130E50703181C
:1009E000E60A0030E607E701BA2DE701E70ABA2D6B
:1009F00010305506031D032D03300310E50DE60DE1
:100A0000FF3E031DFD2C8130B2003208A0006608B5
:100A1000A2006508A10035300A128A11D1250A12F8
:100A20008A113530F1000030F2000A128A112021BB
:100A30000A128A119930F0001930F1008312031361
:100A40006608B3006508B200320EF039B300B20197
:100A50003208F2003308F3000A128A11E2210A1266
:100A60008A11710883120313DE007008DD0028303C
:100A7000B2003208A000650E0F39A100660EF039F1
:100A8000A104660E0F39A2005E08A4005D08A30051
:100A900035300A128A11D1250A128A113530F10037
:100AA0000030F2000A128A1120210A128A11C42D84
:100AB0001030831203135506031D652D03300310F8
:100AC000E50DE60DFF3E031D5F2D8130B2003208BB
:100AD000A0006608A2006508A10035300A128A113C
:100AE000D1250A128A113530F1000030F2000A12C5
:100AF0008A1120210A128A119930F0001930F10070
:100B0000831203136608B3006508B200320EF03991
:100B1000B300B2013208F2003308F3000A128A115E
:100B2000E2210A128A11710883120313DE00700891
:100B3000DD001330B2003208A000650E0F39A100AD
:100B4000660EF039A104660E0F39A2005E08A400FB
:100B50005D08A30035300A128A11D1250A128A11C4
:100B60003530F1000030F2000A128A1120210A12F9
:100B70008A11C42D831203136708003A0319582DF4
:100B8000013A0319F82CC42D831203136008031DC6
:100B9000582C4D30F1008030F2000A128A112021C9
:100BA000080083120313B0002130A5002508A90016
:100BB0000130A007FF30200784000A128A110D209F
:100BC0000A128A11A5002508B10031080319EF2F78
:100BD000253031060319F82D3108A50030088400AE
:100BE0002508831380000130A5002508B007D82D03
:100BF000AE01AF01AD01012E2D150130A500250874
:100C0000A007200884000A128A110D200A128A11F6
:100C1000303A0319FC2D0C2E200884000A128A1188
:100C20000D200A128A110A128A15DA270A128A116D
:100C3000031C5D2E83120313AE01AF010A30F000D6
:100C40000030F100831203132F08F3002E08F20086
:100C50000A128A11FF200A128A11710883120313E3
:100C6000AF007008AE00200884000A128A110D201F
:100C70000A128A11D03EA500FF3003180030A600EA
:100C80002508AE070318AF0A2608AF070130A500F4
:100C90002508A007200884000A128A110D200A12D4
:100CA0008A110A128A15DA270A128A11031C5D2E8C
:100CB0001E2E83120313AD177A2E013083120313F5
:100CC000A007FF30200784000A128A110D200A12A3
:100CD0008A11B100003A0319EF2F583A0319592E1F
:100CE0003C3A03197A2E0D3A03197A2E113A031958
:100CF000592ED82D83120313AD1B962E290884007C
:100D000083130008AB00840A0008AC000230A50081
:100D10002508A907AC1FEB2E0330A5002508AD045C
:100D2000AB09AC09AB0A0319AC0AEB2E2908840005
:100D300083130008AB00840A0008AC000230A50051
:100D40002508A907EB2EB101B10A053031060319B8
:100D5000F42E3108A5002507013E84000A128A11ED
:100D60000D200A128A11A6000A128A110D200A12F9
:100D70008A11A70027082C02031DC02E26082B026B
:100D8000031CF42E0130A5002508B107A52EB101E2
:100D9000B10A043031060319F42E3108A5002507E5
:100DA0000B3E84000A128A110D200A128A11A60035
:100DB0000A128A110D200A128A11A70027082C0294
:100DC000031DE42E26082B02031CF42E0130A5007F
:100DD0002508B107C92E2D088039003A0319A32E22
:100DE000803A0319C72EF42E2E082F040319022F60
:100DF0002D0803390319022FFF30AE070318AF0A7D
:100E0000FF30AF073108A500A601A51BA6032608E1
:100E1000803AA7002F08803A2702031D112F2E08C1
:100E200025020318212F831203133108A500A60100
:100E3000A51BA6032508AE022608031CAF03AF02BC
:100E4000252F83120313AE01AF012D1D4C2F2D084A
:100E500003390319362F2D30A500300884002508EA
:100E6000831380000130A5002508B0072E082F0449
:100E70000319742F3030A50030088400250883132F
:100E800080000130A5002508B007FF30AE07031829
:100E9000AF0AFF30AF07362F2E082F040319652F36
:100EA0002030A5003008840025088313800001301D
:100EB000A5002508B007FF30AE070318AF0AFF30C2
:100EC000AF072E082F04031D502F2D0803390319D7
:100ED000742F2D30A500300884002508831380006E
:100EE0000130A5002508B0073108A5002508AA0093
:100EF000DE2F0A30F8000030F9002A08A500250787
:100F0000013E84000A128A110D200A128A11F00093
:100F10000A128A110D200A128A11F1002C08F3001E
:100F20002B08F2000A128A11E2210A128A117108B2
:100F3000FB007008FA000A128A117B210A128A113A
:100F40007808303E83120313A6002608D22F2A0801
:100F5000A50025070B3E84000A128A110D200A12F3
:100F60008A11F0000A128A110D200A128A11F1006A
:100F70002C08F3002B08F2000A128A11E2210A124F
:100F80008A1170080F3983120313A6002608A800DF
:100F90002808603E84000A128A110D200A128A1164
:100FA000A5002508B1003108A500300884002508F7
:100FB000831380000130A5002508B007FF30A5008D
:100FC0002508AA072A0A0319D82D2D088039003AC6
:100FD0000319792F803A0319A72FD32FD32F831208
:100FE0000313300884008313800108000A128A1159
:100FF000B720E700E501E60183010A128A111E2AE3
:101FA200FF300A128A11DF207308FA007208F90062
:101FB2000800F100F0013A3071020318E62F3030C8
:101FC2007102031CE62FF001F00A700C0800831264
:101FD2000313061CF82FF90144300A128A114B210F
:101FE20083120313061483160313061008003C30F1
:0E1FF200F1008030F2000A128A11202108004E
:00000001FF
