:060000000A128A11122809
:10000800FE00030EF2000408F3000A08F40083124D
:1000180003137F08F5000A128A1119280A128A1197
:10002800152883010A128A115928831603130C1CF8
:100038002528831203130C1C252885158E018F0192
:100048000C1083120C1D2A2885140C110D1C4E2827
:1000580005151430F6070318F70A0030F707770874
:100068009C0076089B007708F1007608F0000310E2
:10007800F10CF00C700895007108960007307702B3
:10008800D03003197602031C4D285030F60000309A
:10009800F7000D107508FF0074088A0073088400C3
:1000A800720E8300FE0E7E0E09008316031385016F
:1000B800831203138501831603130C150D140A30DC
:1000C8008312031397000B309D006430F600003054
:1000D800F700003096003230950077089C007608CB
:1000E8009B000C110D101016901690108316031318
:0E00F8000C148B170B1783120313101482289D
:00000001FF
