:060000000A128A11F02F24
:1007E000F11F08007009F2007109F300F20A031901
:1007F000F30A7208F0007308F1000800F0007008B6
:10080000831203138700042C831203130615082C8C
:100810008312031306110C2C0800F00070088312D9
:10082000031387000616142C831203130615182CC5
:1008300083120313061106120800F300F201731C61
:10084000252C7008F1007108F2070310F00D031059
:10085000F30C7308031D1F2C720808007E088A0021
:100860007F0882002E240A128A118000840A04085C
:100870007D0603190034FF0A0319FE0A322CF11F0A
:10088000462CFF30F000FF30F10008007108803A7C
:10089000FF0080307F02031D4F2C01307002031CCB
:1008A000562C0130F0000030F1000800F001F10199
:1008B0000800FB00403079020318632C83120313F5
:1008C000861306176C2C83120313861706137908F8
:1008D000C03EFA007A08F9007B08B83E0A128A1175
:1008E000FE230A128A117908403E0A128A11FE2359
:1008F0000800F401F501701C832C7208F40703183A
:10090000F50A7308F50701300310F20DF30DFF3EF1
:10091000031D842C01300310F10CF00CFF3E031D6D
:100920008B2C70087104031D7B2C7508F100740872
:10093000F0000800483445344C344C344F342034F3
:10094000D0349C34D0349834D034A03400340034C3
:1009500000340034003400340034003400340034F7
:1009600000340034003400340034003400340034E7
:1009700000340034003400340034003400340034D7
:100980000034003483160313870106128611061102
:100990008613061386128312031386160330F200A1
:1009A0009730F100F10BD22CF20BD22CD72C3F3028
:1009B0000A128A11FE230A128A1140300A128A1181
:1009C000FE230A128A11B8300A128A11FE230A1273
:1009D0008A11C0300A128A11FE2308008312031301
:1009E00086130613F201083072020318202D7208D4
:1009F000B83E0A128A11FE230A128A11F30140300E
:100A000073020318182D7308403E0A128A11FE2340
:100A10000A128A11FF300A128A11FE230A128A1161
:100A20000130F1007108F30740307302031C032DFD
:100A30000130F1007108F20708307202031CF72C34
:100A4000831203138617061708000A128A11C2249C
:100A50000A128A110A128A11EE240A128A110A3025
:100A600083120313B8003808A5001430B900390800
:100A7000A6001430BA003A08A7000A300A128A11F8
:100A800021270A128A113C308400A03083120313FC
:100A9000B8000408B9002830BA003808840083136D
:100AA0000008BB00B80A390884003B088000B90A76
:100AB000BA0B4D2DAC013C30B8003808AD002730E2
:100AC000B9003908AE0000300A128A116A250A12EC
:100AD0008A11692D83120313B3003308AF002F0866
:100AE000B4002C08AF002F08B500093034020318F9
:100AF000080080303502031808003508AF002F08C1
:100B0000F90034080A128A1159240A128A11831230
:100B10000313B6012E083602031808000630AF0092
:100B20002F08F00036080A128A111D240A128A11B1
:100B3000831203133507B0003008FC0036082D0778
:100B4000B1003108840083130008B2003208FD00B0
:100B500034080A128A110E260A128A1101308312F1
:100B60000313AF002F08B6078A2DF601F11FBF2D22
:100B7000F009F109F00A0319F10AF601F60AF31F68
:100B8000CA2DF209F309F20A0319F30A0130F4003D
:100B90007408F606F701F801700871040319012EB4
:100BA000F501F50AF11BE02D01300310F00DF10DF8
:100BB000FF3E031DD52D0130F4007408F507D22D3A
:100BC00001300310F70DF80DFF3E031DE12D7108F4
:100BD0007302031DED2D70087202031CF62D7008C0
:100BE000F2027108031CF303F302771401300310BF
:100BF000F10CF00CFF3E031DF72D0130F502031D33
:100C0000E02D76080319092EF709F809F70A0319E8
:100C1000F80A7808F1007708F0000800831203133F
:100C2000A8002808A0002008A9007C08A00020082F
:100C3000AA0080307D0203181F2E2030202E603045
:100C4000FD02861606178613403029020318080095
:100C500080302A0203180800AB0105302B0203186C
:100C600008002A08A0002008F90029080A128A11A1
:100C700059240A128A110530831203132B02031818
:100C8000772E831203132B08A000A1017D08A20078
:100C9000A3012208F0002308F1000530F200003023
:100CA000F3000A128A1179240A128A11123083126F
:100CB0000313A4008830A50070082407A60071085B
:100CC0000318710A2507A7002008260784002108B9
:100CD0000318210A2707FF000A128A1500200A12AA
:100CE0008A11FF3A0A128A110D240A128A11013060
:100CF00083120313A0002008AA070130A0002008D7
:100D0000AB072D2E83120313A400861641308312E5
:100D10000313A000A00B8A2E8D2E83120313A301B0
:100D2000403024020318080080307C0203180800B9
:100D30007C08A0002008F9000830F0000030F10025
:100D40002408A100A2012108F2002208F3000A12DF
:100D50008A11B5250A128A1170080A128A115924BB
:100D60000A128A11FF30831203138700FF308316A3
:100D7000031387008312031386150616BF2E8312F2
:100D800003130615C32E831203130611C72E8312F5
:100D900003130615CB2E831203130708A0002008A7
:100DA000A3000611DD2E0310A00DFF3E031DD32E60
:100DB0002008A1002108A304ED2E0130A000240882
:100DC0000739013EE52E0310A00DFF3E031DE32E63
:100DD0002008FF3AA1002108A305861106128316F8
:100DE000031387017C0883120313A0002008F90075
:100DF0000830F0000030F1002408A100A201210811
:100E0000F2002208F3000A128A11B5250A128A118B
:100E100070080A128A1159240A128A1183120313C4
:100E200023080A128A110D240A128A11831203134D
:100E30008616413083120313A000A00B1D2F202F14
:100E4000080083120313B7003708A800A901A809F6
:100E5000A909A80A0319A90A26082807F0002908E1
:100E60000318290AF1000A128A11F0230A128A11C2
:100E7000710883120313B4007008B3002508A8009A
:100E8000A901A809A909A80A0319A90A2708280776
:100E9000F00029080318290AF1000A128A11F02328
:100EA0000A128A11710883120313B6007008B50084
:100EB0003708A800A901A809A909A80A0319A90ABD
:100EC00026082807F00029080318290AF1000A1249
:100ED0008A113F240A128A11710883120313AC008D
:100EE0007008AB002508A800A901A809A909A80A4B
:100EF0000319A90A27082807F00029080318290A56
:100F0000F1000A128A113F240A128A117108831211
:100F10000313AE007008AD003509A8003609A9001A
:100F2000A80A0319A90A33082807AF0034080318D0
:100F3000340A2907B000831203132508A8002808E3
:100F4000FC0037080A128A1182260A128A118312BB
:100F5000031337082606031DB12F2508270603199A
:100F6000080003102F0DB100300DB2003509A800A4
:100F70003609A900A80A0319A90A2908803AAA0073
:100F80003208803A2A02031DC72F310828020318AD
:100F9000D52F831203133508AF023608031CB003A4
:100FA000B0022B08A8002808B707831203133208E1
:100FB000803AA8003408803A2802031DE12F330844
:100FC000310203189B2F831203133308AF07031852
:100FD000B00A3408B0072D08A8002808A5079B2FE1
:100FE0008313C830FD000430FE009A30FF00A030AB
:100FF00084000A128A11322483010A128A11252DD3
:10100000FF1B0A2883137F1883170008840A03191B
:10101000FF0A08007F087F398A000408840A031940
:10102000FF0A8200003400340034003400340034FD
:1010300000344F34003400340034073400340734B3
:10104000003414347F3414347F34143424342A3478
:101050007F342A3412342334133408346434623431
:1010600036344934553422344034003405340334A2
:101070000034003400341C34223441340034003451
:10108000413422341C340034143408343E340834DF
:101090001434083408343E340834083400345034EE
:1010A0003034003400340834083408340834083448
:1010B0000034603460340034003420341034083498
:1010C000043402343E345134493445343E3400341F
:1010D00042347F3440340034423461345134493432
:1010E00046342134413445344B34313418341434CB
:1010F00012347F3410342734453445344534393480
:101100003C344A344934493430340134713409347C
:1011100005340334363449344934493436340634DA
:101120004934493429341E340034363436340034DA
:101130000034003456343634003400340834143467
:101140002234413400341434143414341434143438
:10115000003441342234143408340234013451341C
:101160000934063432344934713441343E347E34E7
:101170001134113411347E347F34493449344934C4
:1011800036343E3441344134413422347F344134A6
:10119000413422341C347F34493449344934413495
:1011A0007F3409340934093401343E34413449343C
:1011B00049343A347F340834083408347F340034F6
:1011C00041347F34413400342034403441343F349E
:1011D00001347F3408341434223441347F344034B1
:1011E0004034403440347F3402340C3402347F3491
:1011F0007F340434083410347F343E344134413475
:1012000041343E347F3409340934093406343E34E1
:101210004134513421345E347F3409341934293453
:101220004634463449344934493431340134013484
:101230007F34013401343F344034403440343F344F
:101240001F342034403420341F343F344034703451
:1012500040343F3463341434083414346334073472
:101260000834703408340734613451344934453417
:10127000433400347F344134413400340234043484
:101280000834103420340034413441347F34003485
:1012900004340234013402340434403440344034E1
:1012A00040344034003401340234043400342034F7
:1012B00054345434543478347F34483444344434CB
:1012C000383438344434443444342834383444349E
:1012D000443448347F343834543454345434183417
:1012E00008347E340934013402340C34523452341C
:1012F00052343E347F3408340434043478340034B7
:1013000044347D34403400342034403444343D345B
:1013100000347F34103428344434003400344134F1
:101320007F34403400347C3404341834043478344A
:101330007C34083404340434783438344434443449
:10134000443438347C3414341434143408340834B9
:101350001434143418347C347C34083404340434A5
:1013600008344834543454345434203404343F342E
:101370004434403420343C344034403420347C34D1
:101380001C342034403420341C343C344034303459
:1013900040343C34443428341034283444340C343D
:1013A0005034503450343C344434643454344C3429
:1013B00044340034083436344134003400340034CA
:1013C0007F3400340034003441343634083400347F
:1013D0000234013402340234013400340034003465
:1013E000003400347E341134113411347E347F34AF
:1013F00049344934493433347F34493449344934E5
:1014000036347F340134013401340334E034513450
:101410004F344134FF347F34493449344934413402
:10142000773408347F3408347734413449344934CC
:10143000493436347F341034083404347F347C34F7
:101440002134123409347C347F3408341434223487
:101450004134203441343F3401347F347F3402340A
:101460000C3402347F347F340834083408347F3439
:101470003E344134413441343E347F34013401340C
:1014800001347F347F3409340934093406343E345E
:101490004134413441342234013401347F34013445
:1014A0000134473428341034083407341C342234CF
:1014B0007F3422341C3463341434083414346334D9
:1014C0007F34403440344034FF3407340834083427
:1014D00008347F347F3440347F3440347F347F3469
:1014E00040347F344034FF3401347F34483448344E
:1014F00030347F344834303400347F3400347F3427
:1015000048344834303422344134493449343E3448
:101510007F3408343E3441343E344634293419345F
:1015200009347F34203454345434543478343C34C3
:101530004A344A34493431347C34543454342834B1
:1015400000347C340434043404340C34E034543433
:101550004C344434FC343834543454345434183413
:101560006C3410347C3410346C344434443454348B
:10157000543428347C342034103408347C347C34A3
:101580004134223411347C347C34103428344434D3
:101590000034203444343C3404347C347C34083407
:1015A000103408347C347C341034103410347C34DF
:1015B000383444344434443438347C3404340434CB
:1015C00004347C347C341434143414340834383403
:1015D0004434443444342834043404347C340434EF
:1015E00004340C345034503450343C3430344834A7
:1015F000FC344834303444342834103428344434EF
:101600007C34403440344034FC340C3410341034D6
:1016100010347C347C3440347C3440347C347C342E
:1016200040347C344034FC3404347C345034503402
:1016300020347C345034503420347C347C34503466
:10164000503420340034283444345434543438343E
:101650007C3410343834443438340834543434341A
:0416600014347C348E
:02400E00E2FFCF
:00000001FF
