:060000000A128A11122809
:10000800FE00030E83120313A6000408A7000A08C3
:10001800A8007F08A9000A128A1187290A128A11E2
:10002800152883120313AA01AB01AC01AD01AE017F
:10003800AF01B001B10183010A128A11F1298312BB
:1000480003132B08A1002A08A0000A128A118B208A
:100058000A128A11831203133008031D44288711DA
:100068002F08A300A4012308F0002408F1000A12B5
:100078008A11F2200A128A118312031307148128A5
:100088003003031D582807102E08A300A4012308D5
:10009800F0002408F1000A128A11F2200A128A11CB
:1000A800831203138714812802303006031D6D283C
:1000B80087102D08A300A4012308F0002408F100EC
:1000C8000A128A11F2200A128A11831203130715E1
:1000D800812803303006031D812807112C08A3004E
:1000E800A4012308F0002408F1000A128A11F22062
:1000F8000A128A118312031387150130A3002308FB
:10010800B00704303002031C0800B00108000A30B0
:10011800F0000030F100831203132108F3002008D7
:10012800F2000A128A11BF210A128A11700883127A
:100138000313A2002208AF000A30F6000030F700CF
:100148002108F3002008F2006430F0000030F100CC
:100158000A128A11BF210A128A117108F90070085F
:10016800F8000A128A114B210A128A1176088312A2
:100178000313A2002208AE006430F6000030F70036
:100188002108F3002008F200E830F0000330F10005
:100198000A128A11BF210A128A117108F90070081F
:1001A800F8000A128A114B210A128A117608831262
:1001B8000313A2002208AD00E830F6000330F70070
:1001C8002108F9002008F8000A128A114B21760844
:1001D80083120313A2002208AC0008002529F93075
:1001E8008312031386000800A430831203138600C9
:1001F8000800B03083120313860008009930831278
:100208000313860008009230831203138600080047
:1002180082308312031386000800F8308312031318
:10022800860008008030831203138600080090308F
:100238008312031386000800C0308312031386005C
:1002480008007108003A03192A294A297008003A57
:1002580003192029013A0319F328033A0319F82846
:10026800013A0319FD28073A03190229013A03192B
:100278000729033A03190C29013A031911290F3ADE
:1002880003191629013A03191B294A290800FB01F9
:10029800FC017608770403198229FD01FD0AF71B82
:1002A800612901300310F60DF70DFF3E031D562995
:1002B8000130FA007A08FD07532901300310FB0DBD
:1002C800FC0DFF3E031D622977087902031D6E2984
:1002D80076087802031C77297608F8027708031C49
:1002E800F903F9027B1401300310F70CF60CFF3EFA
:1002F800031D78290130FD02031D61297C08F700E0
:100308007B08F60008008B1A0B1D91290A128A1126
:1003180023200A128A110B11B229831603138C1C8D
:10032800B229831203138C1CB2298C100130A5004A
:100338002508B1071A303102031CB229B101013076
:10034800AA070318AB0A0030AB0727302B0210307E
:1003580003192A02031CB229AA01AB018312031351
:100368002908FF0028088A0027088400260E830031
:10037800FE0E7E0E0900700871040319EC29F501C0
:10038800F50AF11BD32901300310F00DF10DFF3EE2
:10039800031DC8290130F4007408F507C529710840
:1003A8007302031DD92970087202031CE129700821
:1003B800F2027108031CF303F30201300310F10C7D
:1003C800F00CFF3E031DE2290130F502031DD3297D
:1003D8007308F1007208F000080083160313860101
:1003E800FF308312031386008316031387018312D9
:1003F8000313870102308316031381008B168B17B2
:100408000B17831203131217921212129215121459
:100418009214F9308316031392008C148312031379
:0604280012158101162AE5
:02400E0032FF7F
:00000001FF
