:10000000FC2BCF2BD22BD52BD82BDB2BDE2BE12BB4
:08001000E42BE72BEA2BED2B9A
:10072000831686018312860183160515080083123D
:100730008E018C018D010519AD2B27300D02103073
:1007400003190C020318AB2B01308C0703188D0A18
:1007500000308D079B2B8E018E0A0E080800902317
:100760009723013A031DC22B013083128F000F081B
:10077000910782309000DD308F008F0BBD2B900BE6
:10078000BD2BC22B83121108CC230B308312110214
:10079000031CB02B9101B02B83128C00F02B3F3047
:1007A000860008000630860008005B3086000800DE
:1007B0004F30860008006630860008006D308600E5
:1007C00008007D30860008000730860008007F3072
:1007D000860008006F308600080080308600080020
:1007E0000C0884000B3004020318080000308A0053
:1007F0000130040782000800831291018301AF2BAE
:02400E00F2FFBF
:00000001FF
