:060000000A128A11E62F2E
:10071400E8340334003400347808F0007908F10038
:10072400F2018E30FB007B08F300F4010A128A11F7
:1007340039247008F8007108F9007208FA000800FA
:100744008316031387018312031387010A128A1184
:10075400B9230A128A11F43083120313CE00013034
:10076400CF000A128A11C2250A128A11B82B8312E9
:1007740003135408F9005508FA005608FB005708FB
:10078400FC0002300310F90DFA0DFB0DFC0DFF3EC9
:10079400031DC42B02300310F90DFA0DFB0DFC0DE3
:1007A400FF3E031DCD2B7C08F3007B08F2007A0882
:1007B400F1007908F0000030F7007A30F6001230CA
:1007C400F5000030F4000A128A1133257008FF3E48
:1007D400831603139200831203139715171512142B
:1007E40092108316031307110800FC018E30F900E0
:1007F4007908FB0083120313A91F0D2CA609A7096E
:10080400A809A909A60A0319A70A0319A80A03191A
:10081400A90AFC01FC0AFF30290503191F2C013029
:100824000310A90CA80CA70CA60CFF3E031D122C48
:100834000130F9007908FB070D2C2608F000270881
:10084400F1002808F2007B08F9007908F3007C081D
:10085400FA007A08F4000A128A1139247008831203
:100864000313A6007108A7007208A8000800730803
:100874000319412C720871047004031D542C0030B8
:10088400F0000030F1000030F20008000130F50003
:100894007508F30701300310F20CF10CF00CFF3E65
:1008A400031D4D2CFE30720503196F2C482C0130AA
:1008B400F5007508F3070130F00700300318013024
:1008C400F107003003180130F20701300310F20C75
:1008D400F10CF00CFF3E031D682CFF307205031968
:1008E4007E2C592C0130F30201300310F00DF10D70
:1008F400F20DFF3E031D772CF11B842C0230730292
:100904000318742C73188C2CFF30F0057F30F1051C
:10091400FF30F2050310F30C7308F500F601F7013C
:1009240010300310F50DF60DF70DFF3E031D932C4B
:100934007508F0047608F1047708F20474080319C2
:100944000800F2170800831203134008C40041088A
:10095400C5004208C6000310450D460DC7004708F0
:10096400CD004D08031DBF2C0030C3000030C20071
:100974000030C1000030C00008004008C400410835
:10098400C5004208C60017300310C60CC50CC40CC1
:10099400FF3E031DC62C4408C7004708C800C11702
:1009A400FF30C005FF30C1050030C2054008C90052
:1009B4004108CA004208CB00CC018E30CD02CD1FC5
:1009C400012D4D08803A8F3E0318F12C0030C300EE
:1009D4000030C2000030C1000030C0000800013007
:1009E4000310CC0CCB0CCA0CC90CFF3E031DF22C1B
:1009F4000130C4004408CD0703191C2DF12C183014
:100A04004D02031C192D0030C3000030C200003019
:100A1400C1000030C00008000130C4000310C90D3B
:100A2400CA0DCB0DCC0DC40B102D0130CD024D08D9
:100A3400031D0E2D480803192A2DC909CA09CB091B
:100A4400CC09C90A0319CA0A0319CB0A0319CC0A27
:100A54004C08C3004B08C2004A08C1004908C00042
:100A6400080083120313A101F31F452DF009F109B6
:100A7400F209F309F00A0319F10A0319F20A031936
:100A8400F30AA101A10AF71F562DF409F509F60985
:100A9400F709F40A0319F50A0319F60A0319F70A00
:100AA4000130F8007808A1060030A5000030A40049
:100AB4000030A3000030A2007308720471047004B3
:100AC4000319AB2DA001A00AF31B762D0130F80009
:100AD4000310F00DF10DF20DF30DF80B6A2D01303A
:100AE400F8007808A007662D0130F8000310A20D65
:100AF400A30DA40DA50DF80B782D73087702031D23
:100B04008D2D72087602031D8D2D71087502031D4B
:100B14008D2D70087402031C9E2D7008F402710858
:100B2400031C710FF5027208031C720FF60273089E
:100B3400031C730FF702221401300310F30CF20CA0
:100B4400F10CF00CFF3E031D9F2D0130A002031D8C
:100B5400762D21080319B92DA209A309A409A50911
:100B6400A20A0319A30A0319A40A0319A50A25084A
:100B7400F3002408F2002308F1002208F000080022
:100B84000330831203134F02FF3003194E0203187C
:100B940008004F08F9004E08F8000A128A118E2343
:100BA4000A128A11780883120313A3007908A40097
:100BB4007A08A500C030A0007F30A1004430A20014
:100BC4000A128A115B260A128A118312031320085F
:100BD400B3002108B4002208B5000030F7007A30D1
:100BE400F6001230F5000030F4005408D000550827
:100BF400D1005608D2005708D30002300310D00D9C
:100C0400D10DD20DD30DFF3E031D002E5308F3006A
:100C14005208F2005108F1005008F0000A128A113B
:100C240033250A128A11730883120313A900720868
:100C3400A8007108A7007008A6000A128A11F723F9
:100C44000A128A11831203132608B0002708B10080
:100C54002808B2000A128A1113270A128A11831271
:100C640003133008C0003108C1003208C2000A1260
:100C74008A11A5240A128A11831203134108CF0092
:100C84004008CE004E1C4A2E8312031397164D2E95
:100C940083120313971217124F08D1004E08D00085
:100CA4000310D10CD00C0310D10CD00C50089500BB
:100CB4000800831203132308A6002408A7002508AC
:100CC400A8000310270D280DA9002908AE002E083E
:100CD400031D732E0030A0000030A1000030A200DC
:100CE40008002008A6002108A7002208A800031075
:100CF400270D280DA9002908AF002F08031D892EF0
:100D04000030A0000030A1000030A2000800003034
:100D1400AB000030AC000030AD0089302F07A600D6
:100D24002608AE022308A6002408A7002508A80068
:100D340010300310A80CA70CA60CFF3E031D9B2E1D
:100D44002608A9002908AF002008A6002108A7004A
:100D54002208A80010300310A80CA70CA60CFF3E14
:100D6400031DAD2E2608A9002908AF068030A60071
:100D74002608AF05A417FF30A305FF30A4050030F3
:100D8400A505A117FF30A005FF30A1050030A2057D
:100D94001830A6002608AA0001300310AB0DAC0DD4
:100DA400AD0DFF3E031DCF2E22082502031DE02EAC
:100DB40021082402031DE02E20082302031CED2E2B
:100DC4002008A3022108031C210FA4022208031CEB
:100DD400220AA5022B1401300310A30DA40DA50DA6
:100DE400FF3E031DEE2E0130AA02031DCE2E2B085A
:100DF400F0002C08F1002D08F2002E08A6002608A9
:100E0400F3002F08A7002708F4000A128A113924D6
:100E1400700883120313A0007108A1007208A200D5
:100E24000800831203133008B6003108B7003208F3
:100E3400B8000310370D380DB9003908BA003A0864
:100E4400031D2B2F0030B0000030B1000030B20081
:100E540008003308B6003408B7003508B80003109A
:100E6400370D380DB9003908BF003F08031D412F65
:100E74000030B0000030B1000030B20008003F087C
:100E84007B3EB6003608BA073008B6003108B70012
:100E94003208B80010300310B80CB70CB60CFF3E83
:100EA400031D4D2F3608B9003908BF003308B600BA
:100EB4003408B7003508B80010300310B80CB70C6C
:100EC400B60CFF3E031D5F2F3608B9003908BF0674
:100ED4008030B6003608BF05B117B417FF30B3052C
:100EE400FF30B4050030B5050030BB000030BC0055
:100EF4000030BD000730B6003608BE00301C902F0D
:100F04003308BB07340803110318340A031DBC0754
:100F1400350803110318350A031DBD0701300310FA
:100F2400B20CB10CB00CFF3E031D912F0130031025
:100F3400B30DB40DB50DFF3E031D992F0130BE0254
:100F4400031D802F0930B6003608BE00301CB82FB0
:100F54003308BB07340803110318340A031DBC0704
:100F6400350803110318350A031DBD0701300310AA
:100F7400B20CB10CB00CFF3E031DB92F01300310AD
:100F8400BD0CBC0CBB0CFF3E031DC12F0130BE02C7
:100F9400031DA82F3B08F0003C08F1003D08F200B7
:100FA4003A08B6003608F3003F08B7003708F400E3
:100FB4000A128A113924700883120313B0007108CD
:100FC400B1007208B20008000A128A118A230A12B8
:100FD4008A11D4000A128A118B230A128A11D500AD
:100FE4000A128A118C230A128A11D6000A128A1153
:0C0FF4008D23D70083010A128A11A22B62
:02400E00F23F7F
:00000001FF
