:060000000A128A11FC2F18
:100F3C00F00070088312031393000800F30083166B
:100F4C0003138712731DAE2F720894008715B22FEE
:100F5C0070087204940087117308710483120313D0
:100F6C0094000800F001F101F20120300A128A11FC
:100F7C00A4270A128A1183160313871383120313EF
:100F8C008713F701FE3077020318C72F8312031360
:100F9C0087130330F5009730F400F40BD32FF50BC7
:100FAC00D32FD82F77080A128A119E270A128A117A
:100FBC000330F5009730F400F40BE22FF50BE22F21
:100FCC00E72F8312031387170630F6001330F50052
:100FDC00AD30F400F40BF02FF50BF02FF60BF02FD7
:100FEC00F72F0130F4007408F707C82F83010A1299
:040FFC008A11B82F6F
:02400E00393D3A
:00000001FF
