:020000000F28C7
:10000800CE00030E83128E0004088F000A089000A9
:100018004F089100662810288312A801A901AA0197
:10002800AB01AC01830143290A30831292000030EE
:1000380093002108950020089400E32083121208F9
:10004800A2002208AC000A3098000030990021086C
:100058009500200894006430920000309300E3205B
:10006800831213089B0012089A00A620831218080E
:10007800A2002208AB0064309800003099002108E3
:10008800950020089400E830920003309300E320A4
:10009800831213089B0012089A00A62083121808DE
:1000A800A2002208AA00E83098000330990021082D
:1000B8009B0020089A00A62083121808A200220894
:1000C800A90008002808031D6F28051485100511CC
:1000D800851129088E2883122803031D7928051005
:1000E8008514051185112A088E28023083122806E6
:1000F800031D842805108510051585112B088E28E9
:10010800033083122806031D8F280510851005115A
:1001180085152C081621013083128D000D08A807BB
:10012800043028020318A8010B11D83081001108E7
:10013800CF0010088A000F0884000E0E8300CE0E30
:100148004E0E090083129D019E0118081904031917
:10015800DE289F019F0A991BBD2801300310980DC6
:10016800990DFF3E031DB22801309C001C089F0713
:10017800AF28013003109D0D9E0DFF3E031DBE28C4
:1001880019081B02031DCA2818081A02031CD328C1
:1001980018089A021908031C9B039B021D140130BE
:1001A8000310990C980CFF3E031DD42801309F02C0
:1001B800031DBD281E0899001D0898000800831219
:1001C80012081304031911299701970A931BF82899
:1001D80001300310920D930DFF3E031DED280130F1
:1001E800960016089707EA2813081502031DFE282B
:1001F80012081402031C0629120894021308031C8F
:100208009503950201300310930C920CFF3E031DD9
:10021800072901309702031DF828150893001408D0
:100228009200080083128C003729F93086000800F4
:10023800A43086000800B030860008009930860097
:100248000800923086000800823086000800F830E6
:10025800860008008030860008009030860008007C
:10026800C030860008000C0884000A300402031815
:10027800080001308A006F300407820008008221DC
:1002880079218312A601A7012708803ACF00A73059
:100298004F02031D51290F302602031845298312E6
:1002A8002708A1002608A000182003308312A50003
:1002B8004930A4006630A300A30B6029A40B602971
:1002C800A50B6029000001308312A6070318A70AAE
:1002D8000030A7074829342919291C291F29222950
:1002E800252928292B292E29312907308316810011
:1002F800A0308B00D8308312810008008316850156
:0A03080086018312850186010800BA
:02400E00F2FFBF
:00000001FF
