:060000000A128A11122809
:10000800FE00030E83120313A5000408A6000A08C5
:10001800A7007F08A8000A128A1168290A128A1103
:10002800152883120313A901AA01AB01AC01AD0184
:10003800AE01AF01B00183010A128A11D2290A3038
:10004800F0000030F100831203132108F3002008A8
:10005800F2000A128A11A0210A128A11700883126A
:100068000313A2002208B0000A30F6000030F7009F
:100078002108F3002008F2006430F0000030F1009D
:100088000A128A11A0210A128A117108F90070084F
:10009800F8000A128A112C210A128A117608831292
:1000A8000313A2002208AF006430F6000030F70006
:1000B8002108F3002008F200E830F0000330F100D6
:1000C8000A128A11A0210A128A117108F90070080F
:1000D800F8000A128A112C210A128A117608831252
:1000E8000313A2002208AE00E830F6000330F70040
:1000F8002108F9002008F8000A128A112C21760834
:1001080083120313A2002208AD000800F000BE28E5
:10011800F9308312031388000800A43083120313F4
:1001280088000800B0308312031388000800993053
:100138008312031388000800923083120313880087
:10014800080082308312031388000800F8308312F5
:100158000313880008008030831203138800080006
:1001680090308312031388000800C03083120313F1
:10017800880008007008003A0319B928013A0319E1
:100188008C28033A03199128013A03199628073A4B
:1001980003199B28013A0319A028033A0319A52833
:1001A800013A0319AA280F3A0319AF28013A03198B
:1001B800B428DE280800831203132A08A10029089E
:1001C800A0000A128A1123200A128A11831203132B
:1001D8002C08031DF928851130080A128A118A2073
:1001E8000A128A118312031305142C03031D06290E
:1001F80005102F080A128A118A200A128A118312FE
:100208000313851402302C06031D142985102E08AB
:100218000A128A118A200A128A11831203130515F9
:1002280003302C06031D222905112D080A128A11F4
:100238008A200A128A118312031385150130A3003C
:100248002308AC0704302C02031C0800AC0108008A
:10025800FB01FC017608770403196329FD01FD0AF7
:10026800F71B422901300310F60DF70DFF3E031D61
:1002780037290130FA007A08FD07342901300310C4
:10028800FB0DFC0DFF3E031D432977087902031D72
:100298004F2976087802031C58297608F80277084F
:1002A800031CF903F9027B1401300310F70CF60C58
:1002B800FF3E031D59290130FD02031D42297C0818
:1002C800F7007B08F60008008B1A0B1D72290A122A
:1002D8008A11DF200A128A110B119329831603133E
:1002E8008C1C9329831203138C1C93298C100130C6
:1002F800A4002408AB071A302B02031C9329AB0176
:100308000130A9070318AA0A0030AA0727302A02D1
:10031800103003192902031C9329A901AA01831289
:1003280003132808FF0027088A0026088400250EE2
:100338008300FE0E7E0E0900700871040319CD2992
:10034800F501F50AF11BB42901300310F00DF10D88
:10035800FF3E031DA9290130F4007408F507A629FA
:1003680071087302031DBA2970087202031CC2299E
:100378007008F2027108031CF303F3020130031042
:10038800F10CF00CFF3E031DC3290130F502031DDB
:10039800B4297308F1007208F00008000A128A11E3
:1003A800E7210A128A118B168B170B170230831656
:1003B800031381000A128A11FA210A128A11831280
:1003C80003138101E629831603130510851005110F
:1003D80085118312031305108510051185118316E5
:1003E800031388018312031388010800831203137F
:1003F800921512129212121792141214F9308316CF
:0E040800031392008C148312031312150800C4
:00000001FF
