:10000000FE2B00308A000408840A8207003473340F
:1000100073347334733400349E2BB22BC72BDC2B18
:100512000030BC220130BC2208008316850186010E
:1005220083128601850108008E221D2389228312EF
:100532009501960101309E22982A8312980016088E
:100542009700170891001508862383121808AA221B
:10055200080083129200120884000120003A031955
:100562000800120884000120F72201308312910052
:1005720011089207AC2A83129000FE308E000E08FA
:1005820085051008D42283120515FB308E000E0853
:1005920085050B308F0062308E008E0BCE2A8F0BBA
:1005A200CE2A0000080083128D000D1CDA2A0516DF
:1005B200DE2AEF308C000C0885058D1CE22A851698
:1005C200E62ADF308C000C0885050D1DEA2A061785
:1005D200EE2ABF308C000C0886058D1DF22A861784
:1005E20008007F308C000C088605080083129000FA
:1005F200051410088E00043003108E0CFF3E031DFC
:10060200FD2A0E08D42283120515FB308E000E0837
:10061200850510080F39D42283120515FB308E0090
:100622000E0885050B308F0062308E008E0B172B63
:100632008F0B172B00000800FE3083129100110867
:1006420083168505FD3083129100110883168505F6
:10065200FB3083129100110883168505EF30831257
:100662009100110883168605DF308312910011086C
:1006720083168605BF308312910011088316860502
:100682007F3083129100110883168605343083125D
:100692009200F1309100910B4C2B920B4C2B512B71
:1006A2000330BC221A3083129100910B562B0000AA
:1006B2000330BC221A3083129100910B5E2B000092
:1006C2000330BC221A3083129100910B662B00007A
:1006D2000230BC221A3083129100910B6E2B000063
:1006E2000230BC220830BC220030BC220830BC22BE
:1006F2000030BC220130BC220030BC220630BC22B9
:100702000030BC220C30BC22080083129300283037
:100712001302031C902B273092001208930004301E
:100722001102031C982B03309200120891009401CD
:10073200FE30920012088505F12B1308803E9200CC
:10074200120894041408920004300310920CFF3E25
:10075200031DA62B1208BC22831214080F39BC22D7
:10076200080083121308C03E920012089404140871
:10077200920004300310920CFF3E031DBB2B1208A3
:10078200BC22831214080F39BC22080083121308FA
:10079200943E92001208940414089200043003104C
:1007A200920CFF3E031DD02B1208BC2283121408A8
:1007B2000F39BC22080083121308D43E920012089B
:1007C20094041408920004300310920CFF3E031D9F
:1007D200E52B1208BC22831214080F39BC22080030
:1007E2008312110884000430040203180800003048
:0E07F2008A000C300407820008008301952A5B
:02400E00F2FFBF
:00000001FF
