:060000000A128A11122809
:10000800FE00030EF1000408F2000A08F300831250
:1000180003137F08F4000A128A1119280A128A1198
:10002800152883010A128A114C280A128A115720AE
:100038000A128A11831203138E018F010C1074089F
:10004800FF0073088A0072088400710E8300FE0E98
:100058007E0E090083120313101690169015901047
:100068008B17831603130C140B17831203138E01BB
:100078008F01101408008316031305148312031349
:1000880005108316031306108312031306100800C5
:100098000A128A113F200A128A110A128A112E2086
:1000A8000A128A1156280130F000700883120313CF
:0400B80086060800B0
:02400E00393D3A
:00000001FF
