:060000000A128A11122809
:10000800FE00030EF3000408F4000A08F50083124A
:1000180003137F08F6000A128A11292E0A128A1180
:100028001528F701F801F901FA01FB0183120313FE
:10003800DF01E001E101E2018313A0308400F03028
:100048000A128A150C2783010A128A11B02E83120C
:100058000313C4002F30B1003108BD0001308312F2
:100068000313AE07FF302E0784000A128A113627C1
:100078000A128A11B1003108C30043080319ED2C94
:1000880025304306031954284308B1004408840066
:100098003108831380000130B1003108C4073228C9
:1000A800C101C201C501C6016428C51560284514EF
:1000B8006028C615602845150130B1003108AE0723
:1000C8002E0884000A128A1136270A128A11203A49
:1000D80003195B28033A03195D280E3A03195928B6
:1000E8001D3A03195F287828C51D7E28FB30C505F1
:1000F800FF30C6052E0884000A128A1136270A1214
:100108008A110A128A1514270A128A11031CCB288D
:1001180083120313C101C2010A3083120313A00022
:100128000030A1004208A3004108A2000A128A1167
:10013800D7270A128A11831203132108C200200844
:10014800C1002E0884000A128A1136270A128A1161
:10015800D03EB100FF3003180030B2003108C107AB
:100168000318C20A3208C2070130B1003108AE07CD
:100178002E0884000A128A1136270A128A110A12D6
:100188008A1514270A128A11031CE728902883125B
:1001980003132E0884000A128A1136270A128A11BC
:1001A8002A3A031DE7283D08840083130008C1008C
:1001B800840A0008C2000230B1003108BD070130CE
:1001C800B1003108AE07831203132E0884000A1207
:1001D8008A1136270A128A112E3A031D4129461719
:1001E8000130B1003108AE072E0884000A128A11C6
:1001F80036270A128A112A3A031D12293D0884005B
:1002080083130008B1003108C0000230B100310882
:10021800BD070130B1003108AE07DC29C0012E0846
:1002280084000A128A1136270A128A110A128A15BC
:1002380014270A128A11031CDC29831203132E08BF
:1002480084000A128A1136270A128A11B1000A306C
:10025800B2003208A00040080A128A1524270A12A0
:100268008A11831203133107D03EB3003308C0004C
:100278000130B1003108AE07132983120313C001FE
:10028800DC294517022AC516C517022A4008031992
:100298005F294008B100B201B11BB2033C08320229
:1002A800031D58293B08310203185F294008BB0089
:1002B800BC01BB1BBC0342083C02031D6529410865
:1002C8003B0203186E293B08C1023C08031CC20309
:1002D800C2027029C101C201C51D7E299C29203096
:1002E800B100440884003108831380000130B10054
:1002F8003108C407FF30C1070318C20AFF30C2071C
:10030800410A031D7329420A03199C2973293908D4
:10031800840083130008B100440884003108800079
:100328000130B1003108B9070130B1003108C40704
:100338000130BB020030031CBC03BC023B0A031D96
:100348008B293C0A031D8B29C519B6293228203070
:10035800B100440884003108831380000130B100E3
:100368003108C407FF30C1070318C20AFF30C207AB
:10037800410A031DAB29420A03193228AB293D085B
:10038800840083130008B1003108C3000230B100B3
:100398003108BD074330B1003108B9000130BB0056
:1003A8000030BC004A29C030C5040030C604022A07
:1003B800013083120313AE07FF302E0784000A12A0
:1003C8008A1136270A128A11C300003A0319ED2C44
:1003D800583A031947293B3A0319C329073A03191D
:1003E800022A0D3A0319022A063A031945291A3A2C
:1003F8000319D7290D3A03194829CE29C0304505D4
:10040800B10000304605B20031083204031D242A29
:100418003D08840083130008BE00840A0008BF005A
:100428000230B1003108BD07BF1F302A0330C504B0
:100438000030C604BE09BF09BE0A0319BF0A302A24
:100448003D08840083130008BE00840A0008BF002A
:100458000230B1003108BD074008031DA82A3E0834
:100468003F04031DA82A0130B1003108C007A82A9B
:10047800C301C30A053043060319B72A4308B1006C
:1004880031070D3E84000A128A1136270A128A1192
:10049800B2000A128A1136270A128A11B3003308E9
:1004A8003F02031D592A32083E02031CB72A0130B5
:1004B800B1003108C3073E2AC301C30A043043060A
:1004C8000319B72A4308B1003107173E84000A12FE
:1004D8008A1136270A128A11B2000A128A1136279F
:1004E8000A128A11B30033083F02031D7D2A32081D
:1004F8003E02031CB72A0130B1003108C307622A43
:10050800C301C30A063043060319B72A4308B100DA
:100518003107013E84000A128A1136270A128A110D
:10052800B2000A128A1136270A128A11B300330858
:100538003F02031DA12A32083E02031CB72A0130DC
:10054800B1003108C307862A4508C039003A0319A3
:100558003C2A403A0319842AC03A0319602A403ACF
:1005680003193C2AB72A4308803AB1004008803A68
:10057800B1020318C42A4008B1003108C300D02AC8
:100588004008803AB1004308803AB1020318D02AE3
:100598004308B1003108C000410842040319E42AA5
:1005A80003304505B10000304605B2003108320479
:1005B8000319E42AFF30C1070318C20AFF30C20733
:1005C800461F092B4008B100B201B11BB203320823
:1005D800803AB3004208803A3302031DF52A4108E5
:1005E80031020318052B831203134008B100B2012E
:1005F800B11BB2033108C1023208031CC203C20294
:10060800092B83120313C101C201C4304505B1008F
:1006180008304605B200403031060830031932066A
:10062800031D1C2B410842040319412BFF30372BB3
:10063800C0304505B10008304605B20080303106AB
:10064800083003193206031D412B4208803AFF0087
:1006580080307F02031D322B03304102031C3D2BE7
:10066800FE3083120313C1070318C20AFF30C20702
:10067800412B83120313C101C2014308B100B20127
:10068800B11BB2033208803AB3004208803A330201
:10069800031D502B410831020318602B83120313EA
:1006A8004308B100B201B11BB2033108C1023208DC
:1006B800031CC203C202642B83120313C101C201CB
:1006C800451DBB2B03304505B10000304605B2007F
:1006D800310832040319722B2D30752B451C7B2BE6
:1006E8002030B1004408840031088313A02BC030A7
:1006F8004505B10008304605B200803031060830A3
:1007080003193206031DA52B3030B10044088400BC
:100718003108831380000130B1003108C407C51ABD
:10072800972B7830982B5830B5000030B600350834
:10073800B10044088400310880000130B10031085C
:10074800C407410842040319B12C3030B1004408F1
:1007580084003108831380000130B1003108C407D8
:10076800FF30C1070318C20AFF30C207A52B410892
:100778004204031DC519D52B2030B100440884005C
:100788003108831380000130B1003108C407FF30FD
:10079800C1070318C20AFF30C20741084204031DFB
:1007A800C02B03304505B10000304605B2003108C2
:1007B80032040319E12B2D30E42B451CEE2B20309D
:1007C800B100440884003108831380000130B1006F
:1007D8003108C407C0304505B10008304605B200ED
:1007E80040303106083003193206031DFD2B303026
:1007F800A72CC0304505B10008304605B20080304E
:100808003106083003193206031DB12C3030B1000F
:10081800440884003108831380000130B100310896
:10082800C407C51A192C78301A2C5830B700003074
:10083800B8003708B100440884003108AC2C0A30ED
:10084800A8000030A9004008B10031070D3E84001F
:100858000A128A1136270A128A11A0000A128A116E
:1008680036270A128A11A1003F08A3003E08A200F9
:100878000A128A1199270A128A118312031321086E
:10088800AB002008AA000A128A15CC270A128A117E
:10089800831203132808A22C4008B1003107173E21
:1008A80084000A128A1136270A128A11A0000A1235
:1008B8008A1136270A128A11A1003F08A3003E08B0
:1008C800A2000A128A1199270A128A1183120313A5
:1008D80020080F39B2003208B400C51A752C303020
:1008E800762C1F30B1003108BA0034083A0784006A
:1008F8000A128A1136270A128A11B1003108A52C6A
:100908004008B1003107013E84000A128A113627D7
:100918000A128A11A0000A128A1136270A128A11AD
:10092800A1003F08A3003E08A2000A128A119927D5
:100938000A128A118312031320080739303EB200C5
:100948003208C3004308B100440884003108831307
:1009580080000130B1003108C407FF30B100310810
:10096800C007400A0319C82C4508C039003A0319C2
:10097800232C403A0319842CC03A0319502C403ACE
:100988000319232CA62CA62CC51D32284208803A10
:10099800FF0080307F02031DD32C01304102031C6D
:1009A8003228203083120313B10044088400310830
:1009B800831380000130B1003108C407FF30C1073C
:1009C8000318C20AFF30C20741084204031932283B
:1009D800D52C440884008313800108008312031374
:1009E800A6008316031386018801062D0C30831296
:1009F800022D0D30022D0E30022D0F30A4002408D8
:100A0800A600152D83122608003A0319FA2C013A7C
:100A18000319FD2C033A0319FF2C013A0319012D80
:100A2800152D343083120313A500F130A400A40B54
:100A38001B2DA50B1B2D03300A128A1565270A12D8
:100A48008A11193083120313A400A40B292D2C2D0D
:100A580003300A128A1565270A128A11193083127F
:100A68000313A400A40B362D392D03300A128A155E
:100A780065270A128A11193083120313A400A40BE4
:100A8800432D462D02300A128A1565270A128A114B
:100A9800193083120313A400A40B502D532D0230D8
:100AA8000A128A1565270A128A1108300A128A154D
:100AB80065270A128A1100300A128A1565270A1258
:100AC8008A1108300A128A1565270A128A1100301D
:100AD8000A128A1565270A128A1101300A128A1524
:100AE80065270A128A1100300A128A1565270A1228
:100AF8008A1106300A128A1565270A128A110030EF
:100B08000A128A1565270A128A1183120313260806
:100B18000A128A156527080083120313A6002830D5
:100B28002602031C9B2D2730A5002508A6000430AB
:100B38002402031CA32D0330A5002508A400A70147
:100B48000610182E2608803EA5002508A7042708A9
:100B5800A50004300310A50CFF3E031DAE2D25088B
:100B68000A128A1565270A128A11831203132708A5
:100B78000F390A128A1565270800831203132608FD
:100B8800C03EA5002508A7042708A50004300310C7
:100B9800A50CFF3E031DCB2D25080A128A156527D3
:100BA8000A128A118312031327080F390A128A15A9
:100BB80065270800831203132608943EA50025081C
:100BC800A7042708A50004300310A50CFF3E031D49
:100BD800E82D25080A128A1565270A128A11831238
:100BE800031327080F390A128A156527080083128C
:100BF80003132608D43EA5002508A7042708A50046
:100C080004300310A50CFF3E031D052E25080A120B
:100C18008A1565270A128A118312031327080F39C8
:100C28000A128A1565270800831203132408003A5C
:100C38000319A62D013A0319C12D033A0319DE2D14
:100C4800013A0319FB2D282E0800831603130C1CE8
:100C5800372E831203130C1C372E8E018F010C10B4
:100C6800FB01F901FA0183120C1DA42E8E018F01DC
:100C7800831603130C11831203130C117B08031D35
:100C8800A12E7908F0007007A03E84001508831390
:100C98008000840A160880000130F9070318FA0A50
:100CA8000030FA0700307A02223003197902031C57
:100CB800A12EE201E101F701F801003078020830C5
:100CC8000319770203189D2E0310E20C0310E10CA0
:100CD8007708F0007007243EA03E84000008F10069
:100CE800840A0008F20000307202F1300319710220
:100CF8000318E2177708F0007007043EA03E84004E
:100D08000008F100840A0008F20000307202F13095
:100D1800031971020318E1170130F7070318F80ADD
:100D28000030F80700307802083003197702031CF6
:100D3800692EF901FA01FB01FB0A831603130C154E
:100D480076088312FF0075088A0074088400730E01
:100D58008300FE0E7E0E09008316031307150C157B
:100D680004308312031397000C111016901690107C
:100D7800831603130C140B178312031310148B1709
:100D880000300A128A11F2240A128A1102308312E0
:100D98000313C9000430C800B930C700C70BD22EEE
:100DA800C80BD22EC90BD22ED92E83120313620878
:100DB8006006031DE62E5F08C7004708E1006108CA
:100DC8000319CA2E4130C7004708AE006208C800A0
:100DD800C9014808AF004908B0004A300A128A1110
:100DE8002B200A128A11023083120313A800003044
:100DF800A900AA014A30C7004708AB000A128A15A1
:100E080037270A128A11503083120313C700470884
:100E1800AE006108C800C9014808AF004908B00021
:100E28004A300A128A112B200A128A1102308312C0
:100E38000313A8000030A900AA01AA0A4A30C70073
:100E48004708AB000A128A1537270A128A1183123B
:100E580003136208C7004708E0006108C700470895
:100E6800DF00CA2E07308A000408840A820700348B
:100E7800013400340834003440340034003402347F
:100E88000034103400348034013400340A3400341F
:100E980064340034E8340334103427340134003423
:100EA8001034003400340134003410343034313418
:100EB80032343334343435343634373438343934DE
:100EC80041344234433444344534463400343034B5
:100ED80031343234333434343534363437343834C6
:100EE80039346134623463346434653466340034CC
:100EF80043346F346D346D3461346E3464343A3451
:100F08002034303478343034323458340034413476
:100F18006434643472346534733473343A3430343A
:100F28007834303432345834003483120313A50132
:100F3800A601200821040319D22FA701A70AA11B83
:100F4800B12F01300310A00DA10DFF3E031DA62FE8
:100F58000130A4002408A707A32F01300310A50D12
:100F6800A60DFF3E031DB22F21082302031DBE2F2D
:100F780020082202031CC72F2008A2022108031CF4
:100F8800A303A302251401300310A10CA00CFF3EFB
:100F9800031DC82F0130A702031DB12F2608A10089
:100FA8002508A000080083120313A401A501201C32
:100FB800E32F2208A4070318A50A2308A507013070
:100FC8000310A20DA30DFF3E031DE42F01300310F3
:100FD800A10CA00CFF3E031DEB2F20082104031DCC
:0C0FE800DB2F2508A1002408A000080051
:101E180064008001840A04060319003404060D2FA7
:101E280083120313A100A0013A3021020318222FC4
:101E380030302102031C222FA001A00A200C080028
:101E480083120313A300A201231C2E2F2008A10034
:101E58002108A2070310A00D0310A30C2308031DDB
:101E6800282F22080800831203132B08AC002C0823
:101E7800A4002A080A128A1190250A128A158312C8
:101E880003132808A4002908A5000A128A157F2729
:101E9800080083120313A000201C542F0816552F86
:101EA8000812A01C592F88165A2F8812201D5E2F41
:101EB80008175F2F0813A01D632F881708008813C1
:101EC800080083120313A300061023080A128A15B8
:101ED8004D270A128A1583120313061506110B30B3
:101EE80083120313A2006130A100A10B792FA20B6A
:101EF800792F7E2F08008312031324088400831788
:101F0800251C8313000803190800831203132408EF
:101F180084008317251C831300080A128A159F273B
:101F28000A128A15013083120313A4070318A50A9D
:101F38000030A5077F2F83120313A300061423087C
:101F4800A10004300310A10CFF3E031DA62F210899
:101F58000A128A154D270A128A15831203130615C9
:101F6800061123080F390A128A154D270A128A15F5
:101F780083120313061506110B3083120313A200F4
:101F88006130A100A10BC62FA20BC62FCB2F0800D2
:101F980083120313280829040319FB2FAD01AD0A86
:101FA800A91BE22F01300310A80DA90DFF3E031D48
:101FB800D72F0130AC002C08AD07D42F29082B02ED
:101FC800031DE82F28082A02031CF02F2808AA025C
:101FD8002908031CAB03AB0201300310A90CA80CA1
:101FE800FF3E031DF12F0130AD02031DE22F2B0828
:081FF800A9002A08A800080056
:00000001FF
