:02000000FE2BD5
:10064000FC3083128C000C08831685050515860185
:1006500083120510851006108610061186110612E9
:10066000861206138613080083128E018C018D01F9
:1006700005194A2B27300D02103003190C020318FC
:10068000482B01308C0703188D0A00308D07382B5A
:100690008E018E0A0E0808002023EE2B831206140A
:1006A0008510033091004930900067308F008F0B28
:1006B000572B900B572B910B572B0000831286144E
:1006C0000610033091004930900067308F008F0B87
:1006D000672B900B672B910B672B0000831206157D
:1006E0008610033091004930900067308F008F0BE7
:1006F000772B900B772B910B772B000083128615AD
:100700000611033091004930900067308F008F0B45
:10071000872B900B872B910B872B000083120616DB
:100720008611033091004930900067308F008F0BA5
:10073000972B900B972B910B972B0000831286160B
:100740000612033091004930900067308F008F0B04
:10075000A72B900BA72B910BA72B0000831206173A
:100760008612033091004930900067308F008F0B64
:10077000B72B900BB72B910BB72B0000831286176A
:100780000613033091004930900067308F008F0BC3
:10079000C72B900BC72B910BC72B0000831205149E
:1007A0008613033091004930900067308F008F0B23
:1007B000D72B900BD72B910BD72B000083128514CE
:1007C0000510033091004930900067308F008F0B87
:1007D000E72B900BE72B910BE72B00003423013A1A
:1007E00003194E2B83120510851006108610061172
:1007F00086110612861206138613EE2B83014C2BEC
:02400E00F2FFBF
:00000001FF
