:100000000A128A11F72F83120313230822042104F2
:10001000200403194828A901A90AA31B1D2801309F
:10002000A8000310A00DA10DA20DA30DA80B11286F
:100030000130A8002808A9070D2823082702031D5E
:100040002B2822082602031D2B2821082502031D28
:100050002B2820082402031C3B282008A402210886
:10006000031C210FA5022208031C220FA60223084D
:10007000031C230FA70201300310A30CA20CA10C38
:10008000A00CFF3E031D3C280130A902031D1D28C2
:100090002708A3002608A2002508A1002408A00024
:1000A000080083160313B0005A3083120313E200D2
:1000B000620883160313A300013083120313D907C8
:1000C000FF30590784000A168A110A200A128A1181
:1000D000E200620883160313B60036080319F22FF4
:1000E0002530360603198828360883120313E200E8
:1000F00083160313300884008312031362088317E6
:1001000080000130E200620883160313B0075C2808
:10011000A401A50183120313590884000A168A1149
:100120000A200A128A112E3A031DE62883160313A9
:100130002517013083120313E2006208D9078316E2
:100140000313B101B2018312590884000A168A11FF
:100150000A200A128A110A168A11D5200A128A1157
:10016000031CEE28831603133208F1003108F00057
:100170000A30F2000030F3000A168A1182210A12B6
:100180008A1183120313590884000A168A110A205F
:100190000A128A117007E20000300318013071075B
:1001A000E3006208D03E83160313B10083120313E9
:1001B00063080318013EFF3E83160313B2000130AB
:1001C00083120313E2006208D907A32883160313DE
:1001D000B101B2012516EE2825150A290130831236
:1001E0000313D907FF30590784000A168A110A2021
:1001F0000A128A1183160313B600003A0319F22F6C
:10020000643A03190A29023A0319EC280F3A031930
:100210000A295C280030240583120313E20007300A
:1002200083160313250583120313E3006208630496
:100230000319832E83160313251E22290630B100CD
:100240000030B2002308840083130008B300840A3E
:100250000008B400840A0008B500033083120313B9
:10026000E200620883160313A3073308F000340882
:10027000F1003508F2000030F3000030F4000030E7
:10028000F5000A168A1143230A128A1103186129FC
:10029000831603133308F0003408F1003508F20028
:1002A0000A128A1501200A128A1170088316031394
:1002B000B3007108B4007208B5000330A404003024
:1002C000A50483160313A601A701350834043304DB
:1002D0000319552AB33084008313000883120313D3
:1002E000E200840A0008E300840A0008E400840AAB
:1002F0000008E5000F300310E50CE40CE30CE20C01
:10030000FF3E031D7B29FF306205E60000306305D8
:10031000E7006608823E83160313A60083120313C8
:1003200067080318013EFF3E83160313A700FF3042
:10033000A6070318A70AFF30A7070330F000003014
:10034000F1002708F3002608F2000A168A1182211C
:100350000A128A11710883160313A7007008A600F9
:100360000A30F0000030F1002708F3002608F20000
:100370000A168A11EA220A128A11710883160313D7
:10038000A7007008A600A71FCB29FF30A6070318F7
:10039000A70AFF30A7072603FF3A0A128A15652528
:1003A0000A128A1183120313360883160313A80056
:1003B00083120313370883160313A9008312031350
:1003C000380883160313AA00330883120313A60008
:1003D00083160313340883120313A7008316031331
:1003E000350883120313A800831603132808831209
:1003F0000313A90083160313290883120313AA0009
:10040000831603132A0883120313AB000A168A11FA
:100410002D270A128A118312031326088316031349
:10042000A80083120313270883160313A90083125D
:100430000313280883160313AA002808F0002908CC
:10044000F1002A08F2000030F3008030F4003F3061
:10045000F5000A168A1143230A128A110318382A52
:10046000FF3083160313A6070318A70AFF30542A88
:10047000831603132808F0002908F1002A08F20067
:100480000030F3002030F4004130F5000A168A11E4
:1004900043230A128A11031C552A013083160313C1
:1004A000A6070318A70A0030A7078316031332080C
:1004B000803AFF0080307F02031D602A0D30310238
:1004C00003189B2A8316031331080A128A15CB23BB
:1004D0000A128A11831203133608C6003708C700B0
:1004E0003808C80083160313330883120313C900A6
:1004F00083160313340883120313CA0083160313ED
:10050000350883120313CB000A128A1567200A12DA
:100510008A1183120313460883160313B300831250
:100520000313470883160313B40083120313480808
:1005300083160313B500831603132708803AFF00C0
:1005400080307F02031DA62A0A3026020318D92A0A
:10055000831603133508340433040319322B33088C
:1005600083120313BF00831603133408831203138B
:10057000C00083160313350883120313C1000A1643
:100580008A1195240A128A11831203134208410426
:1005900040043F04031D322B831603132708803ABF
:1005A000FF0080307F02031DD72A02302602031C81
:1005B000322B831603132808F0002908F1002A08BB
:1005C000F2007030F3008930F4004030F5000A1674
:1005D0008A1143230A128A110318F02AF730F12AEC
:1005E000F83083160313A6070318A70AFF30A707DE
:1005F00026080A128A1565250A128A118312031326
:10060000360883160313A8008312031337088316D2
:100610000313A90083120313380883160313AA00D7
:100620003308F0003408F1003508F2002808F30020
:100630002908F4002A08F5000A168A116A260A1207
:100640008A11730883160313AF007208AE00710895
:10065000AD007008AC000030B3000030B4000030D2
:10066000B500A12B83160313330883120313BF00B5
:1006700083160313340883120313C0008316031375
:10068000350883120313C1000A168A1195240A1231
:100690008A1183120313420883160313AF008312D7
:1006A0000313410883160313AE008312031340089B
:1006B00083160313AD00831203133F08831603133D
:1006C000AC002F08FB002E08FA002D08F9002C08BA
:1006D000F8000A168A11F1210A128A117808831289
:1006E0000313D3007908D4007A08D50083160313C6
:1006F000330883120313D6008316031334088312BE
:100700000313D70083160313350883120313D8008D
:100710000A168A1161210A128A11831203135308DF
:1007200083160313B30083120313540883160313B1
:10073000B40083120313550883160313B500A601F2
:10074000A701B601B60A0A3036060319F72B360898
:1007500083120313E20001300310E20DFF3E031D7C
:10076000AC2B0310620D013E84000A168A110A2088
:100770000A128A11E3000A168A110A200A128A1143
:10078000E4000A168A110A200A128A11E5000A16E4
:100790008A110A200A128A11E600660883160313DA
:1007A0002F02031DE92B831203136508831603131D
:1007B0002E02031DE92B831203136408831603130F
:1007C0002D02031DE92B8312031363088316031301
:1007D0002C02031CF72B013083120313E200620882
:1007E00083160313B6070A303606031DA72B033002
:1007F000240583120313E20000308316031325053A
:1008000083120313E300620863040319182C2D30CC
:10081000E200831603133008840083120313620876
:10082000831780000130E200620883160313B007CB
:10083000FF308312E200620883160313B607360AFC
:100840000319BE2C360883120313E2000130031093
:10085000E20DFF3E031D272C0310620D013E8400B4
:100860000A168A110A200A128A11F0000A168A1141
:100870000A200A128A11F1000A168A110A200A12A5
:100880008A11F2000A168A110A200A128A11F3004C
:10089000831603132F08F7002E08F6002D08F50025
:1008A0002C08F4000A128A1509200A128A1173080A
:1008B00083160313AB007208AA007108A900700820
:1008C000A800003083120313A3000030A200003000
:1008D000A1000A30A000831603132B088312031310
:1008E000A700831603132A0883120313A600831696
:1008F0000313290883120313A50083160313280882
:1009000083120313A4000A128A1103200A128A1107
:1009100083120313230883160313AB0083120313FC
:10092000220883160313AA008312031321088316D7
:100930000313A90083120313200883160313A800CE
:100940002808303E83120313082C3030831203131F
:10095000E200831603133008840083120313620835
:10096000831780000130E200620883160313B0078A
:10097000FF30A6070318A70AFF30A7072708803A09
:10098000FF0080307F02031DC72C013026020318B0
:10099000A52C831603133208803AFF0080307F02B3
:1009A000031DD42C09303102031CD82C0830DB2C59
:1009B00083160313310883120313E20062088316BF
:1009C0000313B600360883120313E200E301E21BAF
:1009D000E303620883160313B1028312031363084F
:1009E00083160313031CB203B202360803190B2D3E
:1009F0002E3083120313E2008316031330088400A1
:100A0000831203136208831780000130E20062083A
:100A100083160313B00736080A128A1565250A12D1
:100A20008A1183120313360883160313A00083125E
:100A30000313370883160313A10083120313380826
:100A400083160313A200200883120313A900831640
:100A50000313210883120313AA0083160313220829
:100A600083120313AB00831603133308831203139B
:100A7000A60083160313340883120313A7008316FA
:100A80000313350883120313A8000A168A112D27B1
:100A90000A128A11831203132608BF002708C00018
:100AA0002808C1000A168A1195240A128A11831295
:100AB0000313420883160313AF0083120313410884
:100AC00083160313AE008312031340088316031327
:100AD000AD00831203133F0883160313AC00FF30ED
:100AE00083120313E200620883160313B607360A63
:100AF00003197E2E360883120313E200013003101F
:100B0000E20DFF3E031D7F2D0310620D013E8400A8
:100B10000A168A110A200A128A11F0000A168A118E
:100B20000A200A128A11F1000A168A110A200A12F2
:100B30008A11F2000A168A110A200A128A11F30099
:100B4000831603132F08F7002E08F6002D08F50072
:100B50002C08F4000A128A1509200A128A11730857
:100B600083160313AB007208AA007108A90070086D
:100B7000A800003083120313A3000030A20000304D
:100B8000A1000A30A000831603132B08831203135D
:100B9000A700831603132A0883120313A6008316E3
:100BA0000313290883120313A500831603132808CF
:100BB00083120313A4000A128A1103200A128A1155
:100BC00083120313230883160313AB00831203134A
:100BD000220883160313AA00831203132108831625
:100BE0000313A90083120313200883160313A8001C
:100BF0002808303E83120313E200831603133008E3
:100C00008400831203136208831780000130E2001E
:100C1000620883160313B007360883120313E20039
:100C200001300310E20DFF3E031D112E0310620D73
:100C3000013E84000A168A110A200A128A11A000B5
:100C40000A168A110A200A128A11A1000A168A11AC
:100C50000A200A128A11A2000A168A110A200A1210
:100C60008A11A300831603132F0883120313A7000E
:100C7000831603132E0883120313A600831603138F
:100C80002D0883120313A500831603132C08831267
:100C90000313A4000A128A1103200A128A11831274
:100CA0000313230883160313AF00831203132208D0
:100CB00083160313AE008312031321088316031354
:100CC000AD008312031320086C2D30308312031300
:100CD000E2008316031330088400831203136208B2
:100CE000831780000130E200620883160313B00707
:100CF000FF30B1070318B20AFF30B20731083204DF
:100D000003195C28652E83160313230884008313BC
:100D1000000883120313E200840A0008E30062085B
:100D200083160313AC0083120313630883160313A3
:100D3000AD000030AD1BFF30AE00AF0002308312BB
:100D40000313E200620883160313A307AF1FB72E35
:100D50000330A4040030A504AC09AD09AE09AF0905
:100D6000AC0A0319AD0A0319AE0A0319AF0A310818
:100D70003204031DC72E2F082E042D042C04031D3E
:100D8000C72E0130B1070318B20A0030B207B6010E
:100D9000B60A0A30360603191D2F360883120313CC
:100DA000E20001300310E20DFF3E031DD22E0310BE
:100DB000620D013E84000A168A110A200A128A1165
:100DC000E3000A168A110A200A128A11E4000A16A0
:100DD0008A110A200A128A11E5000A168A110A20CD
:100DE0000A128A11E6006608831603132F02031DF8
:100DF0000F2F831203136508831603132E02031D9E
:100E00000F2F831203136408831603132D02031D8F
:100E10000F2F831203136308831603132C02031C82
:100E20001D2F013083120313E2006208831603139F
:100E3000B6070A303606031DCD2E3608831203137B
:100E4000E200E301E21BE3036308803AE400831657
:100E500003133208803A831203136402031D362FF2
:100E60008316031331088312031362020318432FFE
:100E700083160313310883120313E20062088316FA
:100E80000313B600652F831603133608831203136A
:100E9000E200E301E21BE303831603133208803A06
:100EA00083120313E4006308803A6402031D5C2F7D
:100EB00062088316031331020318652F8316031388
:100EC0003608B100B201B11BB2030330831603131D
:100ED000240583120313E200003083160313250553
:100EE00083120313E300620863040319882F2D3073
:100EF000E200831603133008840083120313620890
:100F0000831780000130E200620883160313B007E4
:100F1000FF3083160313B1070318B20AFF30B2077C
:100F2000310A0319320A03195C28003083120313B3
:100F3000A3000030A2000030A1000A30A0008316F8
:100F40000313310883120313E20001300310E20D92
:100F5000FF3E031DA62F0310620D013E84000A16FA
:100F60008A110A200A128A11F0000A168A110A2030
:100F70000A128A11F1000A168A110A200A128A112D
:100F8000F2000A168A110A200A128A11F300831647
:100F900003132F08F7002E08F6002D08F5002C0883
:100FA000F4000A128A1509200A128A1173088312A2
:100FB0000313A7007208A6007108A5007008A4001A
:100FC0000A128A1103200A128A11831203132008BD
:100FD000303EE300630883160313B600360883121D
:100FE0000313782F300884008317800108008316CC
:100FF0000313BB01BC01BD0183010A128A157029CC
:10100200720871047004031908008030F2060800A7
:101012000030FC000030FB000030FA000030F90024
:10102200730872047104700403195E28FD01FD0A3D
:10103200F31B29280130F8000310F00DF10DF20D19
:10104200F30DF80B1D280130F8007808FD07192868
:101052000130F8000310F90DFA0DFB0DFC0DF80B31
:101062002B2873087702031D402872087602031D9D
:10107200402871087502031D402870087402031C81
:1010820051287008F4027108031C710FF5027208EE
:10109200031C720FF6027308031C730FF702791414
:1010A20001300310F30CF20CF10CF00CFF3E031DA7
:1010B20052280130FD02031D29287C08F3007B0819
:1010C200F2007A08F1007908F00008008312031395
:1010D2004608CC004708CD004808CE0003104D0D4D
:1010E2004E0DCF004F08D2004908CC004A08CD006F
:1010F2004B08CE0003104D0D4E0DCF004F08D1000E
:1011020052080319902851085202031897285203D3
:10111200FF3A5107CC0019304C02031C97284908AA
:10112200C6004A08C7004B08C80008005108031946
:101132000800520851020318A6285103FF3A520729
:10114200CC0019304C02031808000630CC004C08C1
:10115200D000C81BD017CB1B5017C717FF30C605CE
:10116200FF30C7050030C805CA17FF30C905FF3078
:10117200CA050030CB05510852020318E628013097
:101182000310C90DCA0DCB0DFF3E031DC12801304E
:10119200D102510852060319E1280130D002500849
:1011A20007390319E128C02801300310C80CC70C05
:1011B200C60CFF3E031DD6280130CC004C08D207D6
:1011C2005208510603190F29D52852085102031853
:1011D2000F2901300310C60DC70DC80DFF3E031DB8
:1011E200EB280130D2025108520603190B290130B3
:1011F200D0025008073903190B29EA2801300310DD
:10120200CB0CCA0CC90CFF3E031D00290130CC00D7
:101212004C08D10752085106031DFF28D01F21296F
:10122200FF30C606FF30C706FF30C8060130C607CA
:10123200003003180130C707003003180130C80717
:10124200501F3329FF30C906FF30CA06FF30CB06D4
:101252000130C907003003180130CA0700300318F3
:101262000130CB07D0014608C9074708031103180C
:10127200470A031DCA07480803110318480A031D39
:10128200CB07CB1F5629FF30C906FF30CA06FF30F5
:10129200CB060130C907003003180130CA070030FD
:1012A20003180130CB07D001D00A4908F0004A08E0
:1012B200F1004B08F2005208CC004C08F300500831
:1012C200CD004D08F4000A168A11A023700883127B
:1012D2000313C6007108C7007208C8000800003076
:1012E2000A168A1123250A128A150030F000A0304E
:1012F200F1004030F2000A168A11F5200A128A150E
:101302009430F8008030F900FA01FB010A168A11C4
:10131200E3200A128A15063083120313EA001330FF
:10132200E900AD30E800E80B9429E90B9429EA0BB7
:1013320094290A168A11CA200A128A1500300A163E
:101342008A111C220A128A15710883160317E500F6
:101352007008E40000300A168A1199220A128A15CE
:10136200831203134608EB004708EC004808ED001F
:10137200E830F0000330F100831603176508F3002C
:101382006408F2000A168A11EA220A128A15710802
:1013920083160313B8007008B7000A30F900003052
:1013A200FA006430F0000030F1008316031765087C
:1013B200F3006408F2000A168A11EA220A128A1558
:1013C2007108FC007008FB000A168A114C220A12EE
:1013D2008A157A0883160313BA007908B9000A300D
:1013E200F9000030FA000A30F0000030F1008316F4
:1013F20003176508F3006408F2000A168A11EA224C
:101402000A128A157108FC007008FB000A168A117C
:101412004C220A128A157A0883160317E10079080A
:10142200E0000A30F9000030FA006508FC006408A8
:10143200FB000A168A114C220A128A157A088316B0
:101442000317E3007908E200773083120313E80000
:101452006808D90083160313380883120313DB00CC
:1014620083160313370883120313DA008316031358
:101472003A0883120313DD0083160313390883121B
:101482000313DC0083160317610883120313DF00C2
:1014920083160317600883120313DE0083160317F3
:1014A200630883120313E100831603176208831291
:1014B2000313E00010300A128A1151200A128A1511
:1014C200863083120313E8006808D9006B08DA003B
:1014D2006C08DB006D08DC0090300A128A11512082
:1014E2000A128A151030F8000130F900FA01FB01E6
:1014F2000A168A11E3200A128A159030F800013088
:10150200F900FA01FB01FB0A0A168A11E3200A120A
:101512008A15063083120313EA001330E900AD3056
:10152200E800E80B922AE90B922AEA0B922A9F29F9
:10153200703084000008F600840A0008F700840A6C
:101542000008F800840A0008F9000310780D790DEC
:10155200FA007A0883120313A5002508031DBA2A8C
:101562000030F3000030F2000030F1000030F000F3
:101572000800733084000008F600840A0008F700AF
:10158200840A0008F800840A0008F9000310780DA4
:10159200790DFA007A08A4002408031DD92A003024
:1015A200F3000030F2000030F1000030F0000800DB
:1015B2007030840000308004840A00308004840A81
:1015C20080308004840A0030800470308400FF3050
:1015D2008005840AFF308005840AFF308005840A72
:1015E200003080057330840000308004840A0030AB
:1015F2008004840A80308004840A003080047330BE
:101602008400FF308005840AFF308005840AFF30A1
:101612008005840A003080050030A3000030A2005B
:101622000030A1000030A0007F30A502A0302407C6
:10163200F6007608A5022030F6007608A4000130F4
:10164200F6000310A00DA10DA20DA30DF60B222B87
:10165200733084000008F600840A0008F700840A48
:101662000008F800840A0008F900703084000008BD
:10167200FA00840A0008FB00840A0008FC00840ABD
:101682000008FD0079087D02031D512B78087C02B9
:10169200031D512B77087B02031D512B76087A021A
:1016A200031C762B733084000008F600840A0008BD
:1016B200F700840A0008F800840A0008F900703074
:1016C200840076088002840A7708031C770F800260
:1016D200840A7808031C780F8002840A7908031CA4
:1016E200790A8002033084022014703084000310CF
:1016F200800D840A800D840A800D840A800D840383
:10170200840384030130A402031D202BA51FA72BF1
:101712002508803A9F3E0318972B0030F3000030D3
:10172200F2000030F1000030F00008000130031038
:10173200A30CA20CA10CA00CFF3E031D982B0130A0
:10174200F6007608A5070319C22B972B2030250235
:10175200031CBF2B0030F3000030F2000030F10018
:101762000030F00008000130F6000310A00DA10DBA
:10177200A20DA30DF60BB62B0130A5022508031D01
:10178200B42B2308F3002208F2002108F1002008FC
:10179200F000080083120313C5006E304502031CDB
:1017A200A92C0330B9003908A2000A30F000003039
:1017B200F1004508BA00BB013A08FB003B08FC00F7
:1017C2006430F9000030FA000A168A114C220A121B
:1017D2008A157A08F3007908F2000A168A11EA22B9
:1017E2000A128A157008093E0A168A1108210A127D
:1017F2008A15503E84000A168A110A200A128A1596
:1018020083120313A6000A168A110A200A128A15E5
:10181200A7000A168A110A200A128A15A8000330A4
:10182200BC003C08A2006430F0000030F100450822
:10183200BD00BE013D08F2003E08F3000A168A11FF
:10184200EA220A128A157008123E0A168A11082123
:101852000A128A15503E84000A168A110A200A12B8
:101862008A1583120313A9000A168A110A200A1282
:101872008A15AA000A168A110A200A128A15AB00D2
:101882000A168A112D270A128A15831203132608B3
:10189200C2002708C3002808C4000330B900390871
:1018A200A2004508BA00BB013A08FB003B08FC0055
:1018B2000A30F9000030FA000A168A114C220A1284
:1018C2008A1579080A168A1108210A128A15503EC9
:1018D20084000A168A110A200A128A158312031337
:1018E200A6000A168A110A200A128A15A7000A16E9
:1018F2008A110A200A128A15A8004208A900430880
:10190200AA004408AB000A168A112D270A128A156A
:10191200831203132608BF002708C0002808C1004D
:101922000030A6000030A7003F30A8003F08A90001
:101932004008AA004108AB000A168A112D2783121B
:1019420003132608B6002708B7002808B8000800C5
:101952000B304502031C332D0330B9003908A200B5
:101962004508BA00BB013A08FB003B08FC000A30FC
:10197200F9000030FA000A168A114C220A128A155E
:1019820079080A168A1108210A128A15503E840023
:101992000A168A110A200A128A1583120313A60054
:1019A2000A168A110A200A128A15A7000A168A1133
:1019B2000A200A128A15A8000330BC003C08A200C3
:1019C2000A30F0000030F1004508BD00BE013D08BC
:1019D200F2003E08F3000A168A11EA220A128A1558
:1019E2007008093E0A168A1108210A128A15503E09
:1019F20084000A168A110A200A128A158312031316
:101A0200A9000A168A110A200A128A15AA000A16C1
:101A12008A110A200A128A15AB000A168A112D278A
:101A22000A128A15831203132608C2002708C3006C
:101A32002808C4000030A6000030A7003F30A800EC
:101A42004208A9004308AA004408AB000A168A11FA
:101A52002D27831203132608B6002708B70028088B
:101A6200B80008000030A6000030A7003F30A800F0
:101A72000330B9003908A20045080A168A11082164
:101A82000A128A15503E84000A168A110A200A1286
:101A92008A1583120313A9000A168A110A200A1250
:101AA2008A15AA000A168A110A200A128A15AB00A0
:101AB2000A168A112D27831203132608B600270857
:101AC200B7002808B800080083120313BE00BE1F27
:101AD200B62EBE09BE0A3E08803A123E031C292ECB
:101AE2000330B9003908A2000A30F0000030F100DA
:101AF2003E08FB00FC01FB1BFC036430F9000030D4
:101B0200FA000A168A114C220A128A157A08F30080
:101B12007908F2000A168A11EA220A128A15700856
:101B2200093E0A168A1108210A128A15503E8400BB
:101B32000A168A110A200A128A1583120313A600B2
:101B42000A168A110A200A128A15A7000A168A1191
:101B52000A200A128A15A8000330BA003A08A20025
:101B62006430F0000030F1003E08F200F301F21B95
:101B7200F3030A168A11EA220A128A157008123E23
:101B82000A168A1108210A128A15503E84000A1682
:101B92008A110A200A128A1583120313A9000A164F
:101BA2008A110A200A128A15AA000A168A110A2024
:101BB2000A128A15AB000A168A112D270A128A15F3
:101BC200831203132608BB002708BC002808BD00A7
:101BD2000330B9003908A2003E08FB00FC01FB1BE0
:101BE200FC030A30F9000030FA000A168A114C226E
:101BF2000A128A1579080A168A1108210A128A1508
:101C0200503E84000A168A110A200A128A1583128B
:101C12000313A6000A168A110A200A128A15A700BF
:101C22000A168A110A200A128A15A8003B08A9007E
:101C32003C08AA003D08AB000A168A112D27831220
:101C420003132608B6002708B7002808B8000800C2
:101C52003E08803A753E031C972E0330B9003908BE
:101C6200A2003E08FB00FC01FB1BFC030A30F9004A
:101C72000030FA000A168A114C220A128A157908D3
:101C82000A168A1108210A128A15503E84000A1681
:101C92008A110A200A128A1583120313A6000A1651
:101CA2008A110A200A128A15A7000A168A110A2026
:101CB2000A128A15A8000330BA003A08A2000A30B4
:101CC200F0000030F1003E08F200F301F21BF303D2
:101CD2000A168A11EA220A128A157008093E0A16A1
:101CE2008A1108210A128A15503E84000A168A11A6
:101CF2000A200A128A1583120313A9000A168A11EE
:101D02000A200A128A15AA000A168A110A200A1241
:101D12008A15AB000A168A112D278312031326088F
:101D2200B6002708B7002808B80008000330B90039
:101D32003908A2003E080A168A1108210A128A15D9
:101D4200503E84000A168A110A200A128A1583124A
:101D52000313B6000A168A110A200A128A15B7005E
:101D62000A168A110A20B80008003E08803A123E7C
:101D7200031C732F0330B9003908A2000A30F000A7
:101D82000030F1003E08FB00FC01FB1BFC03643049
:101D9200F9000030FA000A168A114C220A128A153A
:101DA2007A08F3007908F2000A168A11EA220A1266
:101DB2008A157008093E0A168A1108210A128A1524
:101DC200293E84000A168A110A200A128A158312F1
:101DD2000313A6000A168A110A200A128A15A700FE
:101DE2000A168A110A200A128A15A8000330BA00BC
:101DF2003A08A2006430F0000030F1003E08F20020
:101E0200F301F21BF3030A168A11EA220A128A1557
:101E12007008123E0A168A1108210A128A15293EF2
:101E220084000A168A110A200A128A1583120313E1
:101E3200A9000A168A110A200A128A15AA000A168D
:101E42008A110A200A128A15AB000A168A112D2756
:101E52000A128A15831203132608BB002708BC0046
:101E62002808BD000330B9003908A2003E08FB0073
:101E7200FC01FB1BFC030A30F9000030FA000A16D1
:101E82008A114C220A128A1579080A168A11082127
:101E92000A128A15293E84000A168A110A200A1299
:101EA2008A1583120313A6000A168A110A200A123F
:101EB2008A15A7000A168A110A200A128A15A80092
:101EC2003B08A9003C08AA003D08AB000A168A118B
:101ED2002D27831203132608B6002708B700280807
:101EE200B80008003E08803A753E031CE12F03301B
:101EF200B9003908A2003E08FB00FC01FB1BFC03F1
:101F02000A30F9000030FA000A168A114C220A122D
:101F12008A1579080A168A1108210A128A15293E99
:101F220084000A168A110A200A128A1583120313E0
:101F3200A6000A168A110A200A128A15A7000A1692
:101F42008A110A200A128A15A8000330BA003A0838
:101F5200A2000A30F0000030F1003E08F200F30166
:101F6200F21BF3030A168A11EA220A128A15700872
:101F7200093E0A168A1108210A128A15293E84008E
:101F82000A168A110A200A128A1583120313A9005B
:101F92000A168A110A200A128A15AA000A168A113A
:101FA2000A200A128A15AB000A168A112D278312FB
:101FB20003132608B6002708B7002808B80008004F
:101FC2000330B9003908A2003E080A168A11082116
:101FD2000A128A15293E84000A168A110A200A1258
:101FE2008A1583120313B6000A168A110A200A12EE
:101FF2008A15B7000A168A110A20B8000800FF1BCA
:102002000A2883137F1883170008840A0319FF0A1A
:10201200080010308A000408840A82070034013460
:102022000034003400340A340034003400346434A0
:10203200003400340034E834033400340034103403
:10204200273400340034A034863401340034403460
:1020520042340F34003480349634983400340034DF
:10206200E134F53405340034CA349A343B34003454
:1020720080343F340034203441340034C834423494
:1020820000347A34443440341C3446345034C3343B
:102092004734243474344934973418344B34BC34C0
:1020A200BE344C346B346E344E34033415345034F5
:1020B2007934AD346034F3344934713400348034CB
:1020C2003F34CD34CC343D34D73423343C34123411
:1020D20083343A34B734D1343834C63427343734BD
:1020E200383486343534C034D6343334CC342B349B
:1020F2003234703489343034E734DB342E34E5340E
:102102003C341E344234A2340D34643461347434A9
:1021120061343D3420342534643425346434253428
:10212200643425346434003476346F346C3474345B
:102132006134673465343D34203425342E343234EE
:1021420066340034483465346C346C346F34203473
:0C21520077346F3472346C346434003421
:1021940000300A168A112F210A168A1101300A16F4
:1021A4008A112F210800F100F0013A30710203185E
:1021B400E12830307102031CE128F001F00A700CB0
:1021C40008007B08FC007C08F4007A080A168A11CF
:1021D4000C240A168A117808F4007908F5000A1606
:1021E4008A11A3210800831203131F179F131F14BE
:1021F400831603131F109F101F119F119F17700840
:10220400BB007108BC007208BD00080083120313F0
:10221400A500A401251C12292208A3002308A40751
:102224000310A20D0310A50C2508031D0C29240876
:1022340008007808F0007908F100F2018E30FB0004
:102244007B08F300F4010A168A11A0237008F80031
:102254007108F9007208FA000800F30083120313EE
:10226400061073080A168A1147210A168A11831266
:102274000313061506110B30F2006230F100F10B66
:102284004129F20B412900000800F000701C4E297E
:102294008312031307165129831203130712F01C28
:1022A4005529871656298712701D5A2907175B2945
:1022B4000713F01D5F29871708008713080083128E
:1022C400031355085404530403196A298030D506AE
:1022D4005608C6005708C7005808C8005308C90064
:1022E4005408CA005508CB000A128A1567208312C5
:1022F40003134608D3004708D4004808D500080053
:10230400F401F501701C8C297208F4070318F50A0E
:102314007308F50701300310F20DF30DFF3E031DA2
:102324008D2901300310F10CF00CFF3E031D94299C
:1023340070087104031D84297508F1007408F00005
:102344000800750883120313FF00740884000A163A
:102354008A1100200A168A11003A03190800750828
:1023640083120313FF00740884000A168A110020E4
:102374000A168A110A168A11C6210A168A11013010
:10238400F4070318F50AA329F300831203130614B0
:102394007308F10004300310F10CFF3E031DCD2936
:1023A40071080A168A1147210A168A118312031327
:1023B4000615061173080F390A168A1147210A16E1
:1023C4008A1183120313061506110B30F2006230D2
:1023D400F100F10BEB29F20BEB29000008008E3021
:1023E400FC007C08FD00FF307B050319072A01303F
:1023F4000310FB0CFA0CF90CF80CFF3E031DFA2930
:102404000130FC007C08FD07F5297808F000790804
:10241400F1007A08F2007D08FC007C08F300F40166
:102424000A168A11A0237008F8007108F9007208CE
:10243400FA000800F40008307402031C242AF00196
:10244400F1010800C530F2007208831203139F05DE
:102454007408F20002300310F20DFF3E031D2D2A12
:102464000310720DF30073089F040630F30030303C
:10247400F200F20B3B2AF30B3B2A000083120313F6
:102484001F151F19432A1E08F100831603131E0883
:10249400F000080083120313A101FC1F582AFB0952
:1024A400FC09FB0A0319FC0AA101A10AFA1F5F2A0D
:1024B400F909FA09F90A0319FA0A79087A040319D5
:1024C4008C2AA001A00AFA1B732A01300310F90D0B
:1024D400FA0DFF3E031D682A0130FD007D08A007A8
:1024E400652A7A087C02031D792A79087B02031C79
:1024F400812A7908FB027A08031CFC03FC020130E0
:102504000310FA0CF90CFF3E031D822A0130A002CD
:10251400031D732A21080319942AFB09FC09FB0AE9
:102524000319FC0A7C08FA007B08F90008008312EE
:102534000313CD000030B6008030B7004430B8003B
:10254400831603133B0883120313A6008316031395
:102554003C0883120313A700831603133D08831258
:102564000313A8004D080A168A111C220A168A11A0
:102574007108F9007008F8000A168A111B210A165E
:102584008A11780883120313A9007908AA007A082B
:10259400AB000A168A112D270A168A118312031317
:1025A4002608B9002708BA002808BB000A168A11B1
:1025B400B225831203133608CA003708CB00380843
:1025C400CC004A08C6004B08C7004C08C8000800E5
:1025D400F601F11FF42AF009F109F00A0319F10ACE
:1025E400F601F60AF31FFF2AF209F309F20A0319A6
:1025F400F30A0130F4007408F606F701F8017008D4
:1026040071040319362BF501F50AF11B152B013062
:102614000310F00DF10DFF3E031D0A2B0130F400F1
:102624007408F507072B01300310F70DF80DFF3E72
:10263400031D162B71087302031D222B70087202EE
:10264400031C2B2B7008F2027108031CF303F30222
:10265400771401300310F10CF00CFF3E031D2C2BFA
:102664000130F502031D152B760803193E2BF709DB
:10267400F809F70A0319F80A7808F1007708F00056
:102684000800F21F6A2B0030F6000030F70080309B
:10269400F8007009F9007109FA007209FB00F90ADF
:1026A4000319FA0A0319FB0A7908F6077A080318CA
:1026B4007A0F5D2B5E2BF7077B0803187B0F632BC8
:1026C400642BF8077608F0007708F1007808F20028
:1026D400F51F912B0030F6000030F7008030F80031
:1026E4007309F9007409FA007509FB00F90A031962
:1026F400FA0A0319FB0A7908F6077A0803187A0F0D
:10270400842B852BF7077B0803187B0F8A2B8B2BD5
:10271400F8077608F3007708F4007808F5008030AD
:10272400F2068030F50675087202031D080074086D
:102734007102031D0800730870020800730803196E
:10274400A82B720871047004031DBB2B0030F00029
:102754000030F1000030F20008000130F500750887
:10276400F30701300310F20CF10CF00CFF3E031DD3
:10277400B42BFE3072050319D62BAF2B0130F500B4
:102784007508F3070130F007003003180130F10732
:10279400003003180130F20701300310F20CF10C81
:1027A400F00CFF3E031DCF2BFF3072050319E52B00
:1027B400C02B0130F30201300310F00DF10DF20DC6
:1027C400FF3E031DDE2BF11BEB2B023073020318BB
:1027D400DB2B7318F32BFF30F0057F30F105FF304E
:1027E400F2050310F30C7308F500F601F70110303D
:1027F4000310F50DF60DF70DFF3E031DFA2B7508BA
:10280400F0047608F1047708F20474080319080048
:10281400F2170800F60028307602031C152C273026
:10282400F5007508F60004307402031C1D2C0330F7
:10283400F5007508F400F701831203130610862CC3
:102844007608803EF5007508F7047708F500043033
:102854000310F50CFF3E031D2A2C75080A168A1175
:102864002F210A168A1177080F390A168A112F2187
:1028740008007608C03EF5007508F7047708F500EF
:1028840004300310F50CFF3E031D432C75080A1693
:102894008A112F210A168A1177080F390A168A110C
:1028A4002F2108007608943EF5007508F704770890
:1028B400F50004300310F50CFF3E031D5C2C750875
:1028C4000A168A112F210A168A1177080F390A1657
:1028D4008A112F2108007608D43EF5007508F70404
:1028E4007708F50004300310F50CFF3E031D752C2A
:1028F40075080A168A112F210A168A1177080F39CA
:102904000A168A112F2108007408003A0319222C90
:10291400013A03193B2C033A0319542C013A0319C5
:102924006D2C942C0800831203133F08C300400845
:10293400C4004108C5000310440D450DC6004608F7
:10294400CC004C08031DAF2C0030C2000030C10085
:102954000030C0000030BF0008003F08C30040083A
:10296400C4004108C50017300310C50CC40CC30CC7
:10297400FF3E031DB62C4308C6004608C700C01717
:10298400FF30BF05FF30C0050030C1053F08C80057
:102994004008C9004108CA00CB018E30CC02CC1FCC
:1029A400F12C4C08803A8F3E0318E12C0030C20011
:1029B4000030C1000030C0000030BF00080001300A
:1029C4000310CB0CCA0CC90CC80CFF3E031DE22C2F
:1029D4000130C3004308CC0703190C2DE12C183037
:1029E4004C02031C092D0030C2000030C10000302D
:1029F400C0000030BF0008000130C3000310C80D40
:102A0400C90DCA0DCB0DC30B002D0130CC024C08EF
:102A1400031DFE2C470803191A2DC809C909CA0940
:102A2400CB09C80A0319C90A0319CA0A0319CB0A2C
:102A34004B08C2004A08C1004908C0004808BF004A
:102A44000800F6008316031386018701342D0C3029
:102A5400302D0D30302D0E30302D0F30F400740831
:102A6400F600422D7608003A0319292D013A03197C
:102A74002B2D033A03192D2D013A03192F2D422D25
:102A84003430F500F130F400F40B462DF50B462DEF
:102A94004B2D03300A168A112F210A168A111A3077
:102AA400F400F40B532D000003300A168A112F2171
:102AB4000A168A111A30F400F40B5E2D000003305C
:102AC4000A168A112F210A168A111A30F400F40BFF
:102AD400692D000002300A168A112F210A168A1164
:102AE4001A30F400F40B742D000002300A168A1117
:102AF4002F210A168A1108300A168A112F210A1664
:102B04008A1100300A168A112F210A168A110830F8
:102B14000A168A112F210A168A1100300A168A1100
:102B24002F210A168A1101300A168A112F210A163A
:102B34008A1100300A168A112F210A168A110630CA
:102B44000A168A112F210A168A1100300A168A11D0
:102B54002F210A168A1176080A168A112F210800D5
:102B6400831203133908BC003A08BD003B08BE00B9
:102B740003103D0D3E0DBF003F08C4004408031D73
:102B8400CA2D0030B6000030B7000030B80008008D
:102B94003608BC003708BD003808BE0003103D0DE0
:102BA4003E0DBF003F08C5004508031DE02D003061
:102BB400B6000030B7000030B80008000030C10093
:102BC4000030C2000030C30089304507BC003C0817
:102BD400C4023908BC003A08BD003B08BE001030EE
:102BE4000310BE0CBD0CBC0CFF3E031DF22D3C08B3
:102BF400BF003F08C5003608BC003708BD003808D0
:102C0400BE0010300310BE0CBD0CBC0CFF3E031DF7
:102C1400042E3C08BF003F08C5068030BC003C08B9
:102C2400C505BA17FF30B905FF30BA050030BB053A
:102C3400B717FF30B605FF30B7050030B8051830B8
:102C4400BC003C08C00001300310C10DC20DC30D0F
:102C5400FF3E031D262E38083B02031D372E37087E
:102C64003A02031D372E36083902031C442E360857
:102C7400B9023708031C370FBA023808031C380A94
:102C8400BB02411401300310B90DBA0DBB0DFF3E58
:102C9400031D452E0130C002031D252E4108F000FE
:102CA4004208F1004308F2004408BC003C08F30069
:102CB4004508BD003D08F4000A168A11A0237008D7
:102CC40083120313B6007108B7007208B800080035
:102CD4007008F6007108F7007208F8000310770D09
:102CE400780DF900790883120313A5002508031D44
:102CF400842E0030F3000030F2000030F100003088
:102D0400F00008007308F6007408F7007508F8006E
:102D14000310770D780DF9007908A4002408031D29
:102D24009C2E0030F3000030F2000030F10000303F
:102D3400F0000800F117FF30F005FF30F105003016
:102D4400F205F417FF30F305FF30F4050030F50504
:102D54000030A3000030A2000030A1000030A00029
:102D64007F30A50298302407F6007608A5021830B3
:102D7400F6007608A4000130F6000310A00DA10DA2
:102D8400A20DA30DF60BBF2E75087202031DD02EE3
:102D940074087102031DD02E73087002031CDD2E0B
:102DA4007308F0027408031C740FF1027508031C05
:102DB400750AF202201401300310F00DF10DF20D2A
:102DC400FF3E031DDE2E0130A402031DBD2EA51FF0
:102DD400092F2508803A973E0318F92E0030F30096
:102DE4000030F2000030F1000030F0000800013043
:102DF4000310A30CA20CA10CA00CFF3E031DFA2E81
:102E04000130F6007608A5070319242FF92E18308F
:102E14002502031C212F0030F3000030F2000030A3
:102E2400F1000030F00008000130F6000310A00D9E
:102E3400A10DA20DA30DF60B182F0130A502250834
:102E4400031D162F2308F3002208F2002108F100C5
:102E54002008F0000800831203132608AC0027089A
:102E6400AD002808AE0003102D0D2E0DAF002F0865
:102E7400B0003008031D452F0030A6000030A70025
:102E84000030A80008002908AC002A08AD002B086F
:102E9400AE0003102D0D2E0DAF002F08B500350820
:102EA400031D5B2F0030A6000030A7000030A800EF
:102EB400080035087B3EAC002C08B0072608AC009F
:102EC4002708AD002808AE0010300310AE0CAD0C7E
:102ED400AC0CFF3E031D672F2C08AF002F08B50074
:102EE4002908AC002A08AD002B08AE0010300310EE
:102EF400AE0CAD0CAC0CFF3E031D792F2C08AF00BB
:102F04002F08B5068030AC002C08B505A717AA1702
:102F1400FF30A905FF30AA050030AB050030B10031
:102F24000030B2000030B3000730AC002C08B4000D
:102F3400261CAA2F2908B1072A08031103182A0AF4
:102F4400031DB2072B08031103182B0A031DB30733
:102F540001300310A80CA70CA60CFF3E031DAB2FD9
:102F640001300310A90DAA0DAB0DFF3E031DB32FB5
:102F74000130B402031D9A2F0930AC002C08B400B0
:102F8400261CD22F2908B1072A08031103182A0A7C
:102F9400031DB2072B08031103182B0A031DB307E3
:102FA40001300310A80CA70CA60CFF3E031DD32F61
:102FB40001300310B30CB20CB10CFF3E031DDB2F28
:102FC4000130B402031DC22F3108F0003208F100B1
:102FD4003308F2003008AC002C08F3003508AD00CB
:102FE4002D08F4000A168A11A02370088312031313
:0C2FF400A6007108A7007208A8000800E1
:02400E00393D3A
:00000001FF
