:060000000A128A11FC2F18
:100E3400F30083120313061073080A128A1132276F
:100E44000A128A1183120313061506110B30F200DD
:100E54006230F100F10B2C2FF20B2C2F0000080054
:100E6400F000701C392F8312031308163C2F8312D1
:100E740003130812F01C402F8816412F8812701D8E
:100E8400452F0817462F0813F01D4A2F881708000E
:100E940088130800003083120313A3000030A2005B
:100EA4000030A1000030A0000030A7000030A600F0
:100EB4000030A5000030A4000030AB000030AA00D0
:100EC4000030A9000030A80000300A128A116D27F2
:100ED4000A128A116C2FF600831603138601880107
:100EE4007E2F0C307A2F0D307A2F0E307A2F0F3060
:100EF400F4007408F6008C2F7608003A0319732F57
:100F0400013A0319752F033A0319772F013A03198C
:100F1400792F8C2F3430F500F130F400F40B902F3E
:100F2400F50B902F952F03300A128A111A270A12F3
:100F34008A111A30F400F40B9D2F000003300A12BA
:100F44008A111A270A128A111A30F400F40BA82FF6
:100F5400000003300A128A111A270A128A111A3061
:100F6400F400F40BB32F000002300A128A111A277E
:100F74000A128A111A30F400F40BBE2F000002305A
:100F84000A128A111A270A128A1108300A128A11BF
:100F94001A270A128A1100300A128A111A270A1211
:100FA4008A1108300A128A111A270A128A1100308B
:100FB4000A128A111A270A128A1101300A128A1196
:100FC4001A270A128A1100300A128A111A270A12E1
:100FD4008A1106300A128A111A270A128A1100305D
:100FE4000A128A111A270A128A1176080A128A1119
:0C0FF4001A27080083010A128A114C2FF2
:00000001FF
