:10000000FE2B00308A000408840A820700344C3436
:10001000433444342034483444343434343437346E
:1000200038343034213421342134003448346534B8
:100030006C346C346F34203457346F3472346C3415
:10004000643400349E2BB22BC72BDC2B362B392B80
:040050003B2B3D2BDE
:10054A000030B6220130B62208008312970015083F
:10055A009600160890001408892383121708C822E7
:10056A00080083128F0005100F08DA22831205157E
:10057A00051106308E0030308D008D0BC22A8E0B8D
:10058A00C22A000008008312910011088400012089
:10059A00003A0319080011088400012010230130D1
:1005AA008312900010089107CA2A83128C000C1C2F
:1005BA00E02A0616E12A06128C1CE52A8616E62A85
:1005CA0086120C1DEA2A0617EB2A06138C1DEF2A3F
:1005DA008617080086130800003030238312900122
:1005EA00003089231030C82283129401940A95019D
:1005FA00950A0130AA22063083129A001330990014
:10060A00AD309800980B072B990B072B9A0B072BE9
:10061A000E2BA5220F2B83128F0005140F088D00B5
:10062A00043003108D0CFF3E031D162B0D08DA2231
:10063A008312051505110F080F39DA2283120515E1
:10064A00051106308E0030308D008D0B2A2B8E0B53
:10065A002A2B000008008312920083168501860166
:10066A00422B0C3083123E2B0D303E2B0E303E2B8C
:10067A000F309000100892004E2B8312120884004B
:10068A000430040203184E2B00308A002630040777
:10069A0082001A309100F8309000900B522B910B87
:1006AA00522B00000330B6220D3083129000900BBB
:1006BA005C2B0330B6220D3083129000900B632B13
:1006CA000330B6220D3083129000900B6A2B023051
:1006DA00B6220D3083129000900B712B0230B62295
:1006EA000830B6220030B6220830B6220030B622D0
:1006FA000130B6220030B6220630B6220030B622C9
:10070A0083121208B62208008312920028301202BD
:10071A00031C932B27309100110892000430100219
:10072A00031C9B2B033091001108900093010510C4
:10073A00F12B1208803E91001108930413089100CE
:10074A0004300310910CFF3E031DA62B1108B6229C
:10075A00831213080F39B622080083121208C03E0A
:10076A009100110893041308910004300310910CAE
:10077A00FF3E031DBB2B1108B622831213080F3943
:10078A00B622080083121208943E910011089304BD
:10079A001308910004300310910CFF3E031DD02B67
:1007AA001108B622831213080F39B62208008312E1
:1007BA001208D43E910011089304130891000430E2
:1007CA000310910CFF3E031DE52B1108B62283127C
:1007DA0013080F39B6220800831210088400043067
:1007EA0004020318080000308A002230040782003D
:0607FA0008008301F12A52
:02400E00F2FFBF
:00000001FF
